{
  "contractName": "NFTMarketplace",
  "abi": [
    {
      "inputs": [],
      "stateMutability": "nonpayable",
      "type": "constructor"
    },
    {
      "anonymous": false,
      "inputs": [
        {
          "indexed": true,
          "internalType": "address",
          "name": "owner",
          "type": "address"
        },
        {
          "indexed": true,
          "internalType": "address",
          "name": "approved",
          "type": "address"
        },
        {
          "indexed": true,
          "internalType": "uint256",
          "name": "tokenId",
          "type": "uint256"
        }
      ],
      "name": "Approval",
      "type": "event"
    },
    {
      "anonymous": false,
      "inputs": [
        {
          "indexed": true,
          "internalType": "address",
          "name": "owner",
          "type": "address"
        },
        {
          "indexed": true,
          "internalType": "address",
          "name": "operator",
          "type": "address"
        },
        {
          "indexed": false,
          "internalType": "bool",
          "name": "approved",
          "type": "bool"
        }
      ],
      "name": "ApprovalForAll",
      "type": "event"
    },
    {
      "anonymous": false,
      "inputs": [
        {
          "indexed": true,
          "internalType": "address",
          "name": "previousOwner",
          "type": "address"
        },
        {
          "indexed": true,
          "internalType": "address",
          "name": "newOwner",
          "type": "address"
        }
      ],
      "name": "OwnershipTransferred",
      "type": "event"
    },
    {
      "anonymous": false,
      "inputs": [
        {
          "indexed": true,
          "internalType": "address",
          "name": "from",
          "type": "address"
        },
        {
          "indexed": true,
          "internalType": "address",
          "name": "to",
          "type": "address"
        },
        {
          "indexed": true,
          "internalType": "uint256",
          "name": "tokenId",
          "type": "uint256"
        }
      ],
      "name": "Transfer",
      "type": "event"
    },
    {
      "inputs": [
        {
          "internalType": "address",
          "name": "to",
          "type": "address"
        },
        {
          "internalType": "uint256",
          "name": "tokenId",
          "type": "uint256"
        }
      ],
      "name": "approve",
      "outputs": [],
      "stateMutability": "nonpayable",
      "type": "function"
    },
    {
      "inputs": [
        {
          "internalType": "address",
          "name": "owner",
          "type": "address"
        }
      ],
      "name": "balanceOf",
      "outputs": [
        {
          "internalType": "uint256",
          "name": "",
          "type": "uint256"
        }
      ],
      "stateMutability": "view",
      "type": "function",
      "constant": true
    },
    {
      "inputs": [
        {
          "internalType": "uint256",
          "name": "tokenId",
          "type": "uint256"
        }
      ],
      "name": "getApproved",
      "outputs": [
        {
          "internalType": "address",
          "name": "",
          "type": "address"
        }
      ],
      "stateMutability": "view",
      "type": "function",
      "constant": true
    },
    {
      "inputs": [
        {
          "internalType": "address",
          "name": "owner",
          "type": "address"
        },
        {
          "internalType": "address",
          "name": "operator",
          "type": "address"
        }
      ],
      "name": "isApprovedForAll",
      "outputs": [
        {
          "internalType": "bool",
          "name": "",
          "type": "bool"
        }
      ],
      "stateMutability": "view",
      "type": "function",
      "constant": true
    },
    {
      "inputs": [],
      "name": "name",
      "outputs": [
        {
          "internalType": "string",
          "name": "",
          "type": "string"
        }
      ],
      "stateMutability": "view",
      "type": "function",
      "constant": true
    },
    {
      "inputs": [],
      "name": "owner",
      "outputs": [
        {
          "internalType": "address",
          "name": "",
          "type": "address"
        }
      ],
      "stateMutability": "view",
      "type": "function",
      "constant": true
    },
    {
      "inputs": [
        {
          "internalType": "uint256",
          "name": "tokenId",
          "type": "uint256"
        }
      ],
      "name": "ownerOf",
      "outputs": [
        {
          "internalType": "address",
          "name": "",
          "type": "address"
        }
      ],
      "stateMutability": "view",
      "type": "function",
      "constant": true
    },
    {
      "inputs": [],
      "name": "renounceOwnership",
      "outputs": [],
      "stateMutability": "nonpayable",
      "type": "function"
    },
    {
      "inputs": [
        {
          "internalType": "address",
          "name": "from",
          "type": "address"
        },
        {
          "internalType": "address",
          "name": "to",
          "type": "address"
        },
        {
          "internalType": "uint256",
          "name": "tokenId",
          "type": "uint256"
        }
      ],
      "name": "safeTransferFrom",
      "outputs": [],
      "stateMutability": "nonpayable",
      "type": "function"
    },
    {
      "inputs": [
        {
          "internalType": "address",
          "name": "from",
          "type": "address"
        },
        {
          "internalType": "address",
          "name": "to",
          "type": "address"
        },
        {
          "internalType": "uint256",
          "name": "tokenId",
          "type": "uint256"
        },
        {
          "internalType": "bytes",
          "name": "_data",
          "type": "bytes"
        }
      ],
      "name": "safeTransferFrom",
      "outputs": [],
      "stateMutability": "nonpayable",
      "type": "function"
    },
    {
      "inputs": [],
      "name": "serviceCharge",
      "outputs": [
        {
          "internalType": "uint256",
          "name": "",
          "type": "uint256"
        }
      ],
      "stateMutability": "view",
      "type": "function",
      "constant": true
    },
    {
      "inputs": [
        {
          "internalType": "address",
          "name": "operator",
          "type": "address"
        },
        {
          "internalType": "bool",
          "name": "approved",
          "type": "bool"
        }
      ],
      "name": "setApprovalForAll",
      "outputs": [],
      "stateMutability": "nonpayable",
      "type": "function"
    },
    {
      "inputs": [
        {
          "internalType": "bytes4",
          "name": "interfaceId",
          "type": "bytes4"
        }
      ],
      "name": "supportsInterface",
      "outputs": [
        {
          "internalType": "bool",
          "name": "",
          "type": "bool"
        }
      ],
      "stateMutability": "view",
      "type": "function",
      "constant": true
    },
    {
      "inputs": [],
      "name": "symbol",
      "outputs": [
        {
          "internalType": "string",
          "name": "",
          "type": "string"
        }
      ],
      "stateMutability": "view",
      "type": "function",
      "constant": true
    },
    {
      "inputs": [
        {
          "internalType": "uint256",
          "name": "tokenId",
          "type": "uint256"
        }
      ],
      "name": "tokenURI",
      "outputs": [
        {
          "internalType": "string",
          "name": "",
          "type": "string"
        }
      ],
      "stateMutability": "view",
      "type": "function",
      "constant": true
    },
    {
      "inputs": [
        {
          "internalType": "address",
          "name": "from",
          "type": "address"
        },
        {
          "internalType": "address",
          "name": "to",
          "type": "address"
        },
        {
          "internalType": "uint256",
          "name": "tokenId",
          "type": "uint256"
        }
      ],
      "name": "transferFrom",
      "outputs": [],
      "stateMutability": "nonpayable",
      "type": "function"
    },
    {
      "inputs": [
        {
          "internalType": "address",
          "name": "newOwner",
          "type": "address"
        }
      ],
      "name": "transferOwnership",
      "outputs": [],
      "stateMutability": "nonpayable",
      "type": "function"
    },
    {
      "stateMutability": "payable",
      "type": "receive",
      "payable": true
    },
    {
      "inputs": [
        {
          "internalType": "uint256",
          "name": "amount",
          "type": "uint256"
        }
      ],
      "name": "withdrawBalance",
      "outputs": [],
      "stateMutability": "payable",
      "type": "function",
      "payable": true
    },
    {
      "inputs": [
        {
          "internalType": "uint256",
          "name": "tokenId",
          "type": "uint256"
        },
        {
          "internalType": "string",
          "name": "tokenURI",
          "type": "string"
        },
        {
          "internalType": "uint256",
          "name": "price",
          "type": "uint256"
        },
        {
          "internalType": "bool",
          "name": "isForSale",
          "type": "bool"
        }
      ],
      "name": "mintToken",
      "outputs": [],
      "stateMutability": "payable",
      "type": "function",
      "payable": true
    },
    {
      "inputs": [
        {
          "internalType": "uint256",
          "name": "tokenId",
          "type": "uint256"
        }
      ],
      "name": "buyNFT",
      "outputs": [],
      "stateMutability": "payable",
      "type": "function",
      "payable": true
    },
    {
      "inputs": [
        {
          "internalType": "uint256",
          "name": "tokenId",
          "type": "uint256"
        }
      ],
      "name": "burnToken",
      "outputs": [],
      "stateMutability": "payable",
      "type": "function",
      "payable": true
    },
    {
      "inputs": [
        {
          "internalType": "uint256",
          "name": "tokenId",
          "type": "uint256"
        },
        {
          "internalType": "uint256",
          "name": "newPrice",
          "type": "uint256"
        },
        {
          "internalType": "bool",
          "name": "changeToIsForSale",
          "type": "bool"
        }
      ],
      "name": "changeNFTSaleStatus",
      "outputs": [],
      "stateMutability": "payable",
      "type": "function",
      "payable": true
    },
    {
      "inputs": [
        {
          "internalType": "address",
          "name": "creator",
          "type": "address"
        }
      ],
      "name": "getItemsByCreator",
      "outputs": [
        {
          "components": [
            {
              "internalType": "uint256",
              "name": "tokenId",
              "type": "uint256"
            },
            {
              "internalType": "string",
              "name": "tokenURI",
              "type": "string"
            },
            {
              "internalType": "uint256",
              "name": "price",
              "type": "uint256"
            },
            {
              "internalType": "address",
              "name": "creator",
              "type": "address"
            },
            {
              "internalType": "address",
              "name": "owner",
              "type": "address"
            },
            {
              "internalType": "bool",
              "name": "isForSale",
              "type": "bool"
            }
          ],
          "internalType": "struct NFTMarketplace.NFTItem[]",
          "name": "",
          "type": "tuple[]"
        }
      ],
      "stateMutability": "view",
      "type": "function",
      "constant": true
    },
    {
      "inputs": [
        {
          "internalType": "address",
          "name": "owner",
          "type": "address"
        }
      ],
      "name": "getItemsByOwner",
      "outputs": [
        {
          "components": [
            {
              "internalType": "uint256",
              "name": "tokenId",
              "type": "uint256"
            },
            {
              "internalType": "string",
              "name": "tokenURI",
              "type": "string"
            },
            {
              "internalType": "uint256",
              "name": "price",
              "type": "uint256"
            },
            {
              "internalType": "address",
              "name": "creator",
              "type": "address"
            },
            {
              "internalType": "address",
              "name": "owner",
              "type": "address"
            },
            {
              "internalType": "bool",
              "name": "isForSale",
              "type": "bool"
            }
          ],
          "internalType": "struct NFTMarketplace.NFTItem[]",
          "name": "",
          "type": "tuple[]"
        }
      ],
      "stateMutability": "view",
      "type": "function",
      "constant": true
    },
    {
      "inputs": [],
      "name": "getItemsForSale",
      "outputs": [
        {
          "components": [
            {
              "internalType": "uint256",
              "name": "tokenId",
              "type": "uint256"
            },
            {
              "internalType": "string",
              "name": "tokenURI",
              "type": "string"
            },
            {
              "internalType": "uint256",
              "name": "price",
              "type": "uint256"
            },
            {
              "internalType": "address",
              "name": "creator",
              "type": "address"
            },
            {
              "internalType": "address",
              "name": "owner",
              "type": "address"
            },
            {
              "internalType": "bool",
              "name": "isForSale",
              "type": "bool"
            }
          ],
          "internalType": "struct NFTMarketplace.NFTItem[]",
          "name": "",
          "type": "tuple[]"
        }
      ],
      "stateMutability": "view",
      "type": "function",
      "constant": true
    },
    {
      "inputs": [
        {
          "internalType": "address",
          "name": "owner",
          "type": "address"
        }
      ],
      "name": "getItemsSoldByOwner",
      "outputs": [
        {
          "components": [
            {
              "internalType": "uint256",
              "name": "tokenId",
              "type": "uint256"
            },
            {
              "internalType": "string",
              "name": "tokenURI",
              "type": "string"
            },
            {
              "internalType": "uint256",
              "name": "price",
              "type": "uint256"
            },
            {
              "internalType": "address",
              "name": "creator",
              "type": "address"
            },
            {
              "internalType": "address",
              "name": "owner",
              "type": "address"
            },
            {
              "internalType": "bool",
              "name": "isForSale",
              "type": "bool"
            }
          ],
          "internalType": "struct NFTMarketplace.NFTItem[]",
          "name": "",
          "type": "tuple[]"
        }
      ],
      "stateMutability": "view",
      "type": "function",
      "constant": true
    },
    {
      "inputs": [
        {
          "internalType": "address",
          "name": "owner",
          "type": "address"
        }
      ],
      "name": "getItemsForSaleByOwner",
      "outputs": [
        {
          "components": [
            {
              "internalType": "uint256",
              "name": "tokenId",
              "type": "uint256"
            },
            {
              "internalType": "string",
              "name": "tokenURI",
              "type": "string"
            },
            {
              "internalType": "uint256",
              "name": "price",
              "type": "uint256"
            },
            {
              "internalType": "address",
              "name": "creator",
              "type": "address"
            },
            {
              "internalType": "address",
              "name": "owner",
              "type": "address"
            },
            {
              "internalType": "bool",
              "name": "isForSale",
              "type": "bool"
            }
          ],
          "internalType": "struct NFTMarketplace.NFTItem[]",
          "name": "",
          "type": "tuple[]"
        }
      ],
      "stateMutability": "view",
      "type": "function",
      "constant": true
    },
    {
      "inputs": [
        {
          "internalType": "address",
          "name": "owner",
          "type": "address"
        }
      ],
      "name": "getItemsNotForSaleByOwner",
      "outputs": [
        {
          "components": [
            {
              "internalType": "uint256",
              "name": "tokenId",
              "type": "uint256"
            },
            {
              "internalType": "string",
              "name": "tokenURI",
              "type": "string"
            },
            {
              "internalType": "uint256",
              "name": "price",
              "type": "uint256"
            },
            {
              "internalType": "address",
              "name": "creator",
              "type": "address"
            },
            {
              "internalType": "address",
              "name": "owner",
              "type": "address"
            },
            {
              "internalType": "bool",
              "name": "isForSale",
              "type": "bool"
            }
          ],
          "internalType": "struct NFTMarketplace.NFTItem[]",
          "name": "",
          "type": "tuple[]"
        }
      ],
      "stateMutability": "view",
      "type": "function",
      "constant": true
    },
    {
      "inputs": [
        {
          "internalType": "uint256",
          "name": "tokenId",
          "type": "uint256"
        }
      ],
      "name": "getNFTItem",
      "outputs": [
        {
          "components": [
            {
              "internalType": "uint256",
              "name": "tokenId",
              "type": "uint256"
            },
            {
              "internalType": "string",
              "name": "tokenURI",
              "type": "string"
            },
            {
              "internalType": "uint256",
              "name": "price",
              "type": "uint256"
            },
            {
              "internalType": "address",
              "name": "creator",
              "type": "address"
            },
            {
              "internalType": "address",
              "name": "owner",
              "type": "address"
            },
            {
              "internalType": "bool",
              "name": "isForSale",
              "type": "bool"
            }
          ],
          "internalType": "struct NFTMarketplace.NFTItem",
          "name": "",
          "type": "tuple"
        }
      ],
      "stateMutability": "view",
      "type": "function",
      "constant": true
    },
    {
      "inputs": [
        {
          "internalType": "address",
          "name": "userAddress",
          "type": "address"
        }
      ],
      "name": "getNFTItemCountUtilityByUser",
      "outputs": [
        {
          "internalType": "uint256[5]",
          "name": "",
          "type": "uint256[5]"
        }
      ],
      "stateMutability": "view",
      "type": "function",
      "constant": true
    },
    {
      "inputs": [
        {
          "internalType": "uint256",
          "name": "newSc",
          "type": "uint256"
        }
      ],
      "name": "changeServiceCharge",
      "outputs": [],
      "stateMutability": "payable",
      "type": "function",
      "payable": true
    }
  ],
  "bytecode": "0x60806040526113886008553480156200001757600080fd5b506040518060400160405280600c81526020017f58756e6769626c65204e465400000000000000000000000000000000000000008152506040518060400160405280600481526020017f584e46540000000000000000000000000000000000000000000000000000000081525081600090805190602001906200009c929190620001ac565b508060019080519060200190620000b5929190620001ac565b505050620000d8620000cc620000de60201b60201c565b620000e660201b60201c565b620002c0565b600033905090565b6000600760009054906101000a900473ffffffffffffffffffffffffffffffffffffffff16905081600760006101000a81548173ffffffffffffffffffffffffffffffffffffffff021916908373ffffffffffffffffffffffffffffffffffffffff1602179055508173ffffffffffffffffffffffffffffffffffffffff168173ffffffffffffffffffffffffffffffffffffffff167f8be0079c531659141344cd1fd0a4f28419497f9722a3daafe3b4186f6b6457e060405160405180910390a35050565b828054620001ba906200028b565b90600052602060002090601f016020900481019282620001de57600085556200022a565b82601f10620001f957805160ff19168380011785556200022a565b828001600101855582156200022a579182015b82811115620002295782518255916020019190600101906200020c565b5b5090506200023991906200023d565b5090565b5b80821115620002585760008160009055506001016200023e565b5090565b7f4e487b7100000000000000000000000000000000000000000000000000000000600052602260045260246000fd5b60006002820490506001821680620002a457607f821691505b602082108103620002ba57620002b96200025c565b5b50919050565b615f5c80620002d06000396000f3fe6080604052600436106101dc5760003560e01c80636352211e11610102578063a22cb46511610095578063da76d5cd11610064578063da76d5cd146106e0578063e904c8ab146106fc578063e985e9c514610727578063f2fde38b14610764576101e3565b8063a22cb46514610635578063b88d4fde1461065e578063c87b56dd14610687578063cba72afb146106c4576101e3565b80637ab8f282116100d15780637ab8f282146105865780637b47ec1a146105c35780638da5cb5b146105df57806395d89b411461060a576101e3565b80636352211e146104b85780636a3ceff9146104f557806370a0823114610532578063715018a61461056f576101e3565b80631b97f69f1161017a578063373bedf511610149578063373bedf51461041a57806342842e0e1461045757806351ed8288146104805780635fb5f0f11461049c576101e3565b80631b97f69f1461035b57806323b872dd1461039857806325f6bcc9146103c15780632c67a8e5146103dd576101e3565b8063081812fc116101b6578063081812fc1461027b578063095ea7b3146102b85780630fedaf8c146102e1578063176c24f91461031e576101e3565b806301ffc9a7146101e8578063064ddd041461022557806306fdde0314610250576101e3565b366101e357005b600080fd5b3480156101f457600080fd5b5061020f600480360381019061020a91906146f6565b61078d565b60405161021c919061473e565b60405180910390f35b34801561023157600080fd5b5061023a61086f565b60405161024791906149a6565b60405180910390f35b34801561025c57600080fd5b50610265610aed565b6040516102729190614a12565b60405180910390f35b34801561028757600080fd5b506102a2600480360381019061029d9190614a60565b610b7f565b6040516102af9190614a9c565b60405180910390f35b3480156102c457600080fd5b506102df60048036038101906102da9190614ae3565b610c04565b005b3480156102ed57600080fd5b5061030860048036038101906103039190614b23565b610d1b565b60405161031591906149a6565b60405180910390f35b34801561032a57600080fd5b5061034560048036038101906103409190614b23565b611037565b6040516103529190614bec565b60405180910390f35b34801561036757600080fd5b50610382600480360381019061037d9190614b23565b611184565b60405161038f91906149a6565b60405180910390f35b3480156103a457600080fd5b506103bf60048036038101906103ba9190614c07565b611485565b005b6103db60048036038101906103d69190614c86565b6114e5565b005b3480156103e957600080fd5b5061040460048036038101906103ff9190614b23565b6116ae565b60405161041191906149a6565b60405180910390f35b34801561042657600080fd5b50610441600480360381019061043c9190614b23565b61195a565b60405161044e91906149a6565b60405180910390f35b34801561046357600080fd5b5061047e60048036038101906104799190614c07565b611c3d565b005b61049a60048036038101906104959190614a60565b611c5d565b005b6104b660048036038101906104b19190614e0e565b611eeb565b005b3480156104c457600080fd5b506104df60048036038101906104da9190614a60565b611f47565b6040516104ec9190614a9c565b60405180910390f35b34801561050157600080fd5b5061051c60048036038101906105179190614a60565b611ff8565b6040516105299190614f1a565b60405180910390f35b34801561053e57600080fd5b5061055960048036038101906105549190614b23565b612192565b6040516105669190614f4b565b60405180910390f35b34801561057b57600080fd5b50610584612249565b005b34801561059257600080fd5b506105ad60048036038101906105a89190614b23565b6122d1565b6040516105ba91906149a6565b60405180910390f35b6105dd60048036038101906105d89190614a60565b6125be565b005b3480156105eb57600080fd5b506105f4612613565b6040516106019190614a9c565b60405180910390f35b34801561061657600080fd5b5061061f61263d565b60405161062c9190614a12565b60405180910390f35b34801561064157600080fd5b5061065c60048036038101906106579190614f66565b6126cf565b005b34801561066a57600080fd5b5061068560048036038101906106809190615047565b6126e5565b005b34801561069357600080fd5b506106ae60048036038101906106a99190614a60565b612747565b6040516106bb9190614a12565b60405180910390f35b6106de60048036038101906106d99190614a60565b612898565b005b6106fa60048036038101906106f59190614a60565b61292d565b005b34801561070857600080fd5b50610711612a00565b60405161071e9190614f4b565b60405180910390f35b34801561073357600080fd5b5061074e600480360381019061074991906150ca565b612a06565b60405161075b919061473e565b60405180910390f35b34801561077057600080fd5b5061078b60048036038101906107869190614b23565b612a9a565b005b60007f80ac58cd000000000000000000000000000000000000000000000000000000007bffffffffffffffffffffffffffffffffffffffffffffffffffffffff1916827bffffffffffffffffffffffffffffffffffffffffffffffffffffffff1916148061085857507f5b5e139f000000000000000000000000000000000000000000000000000000007bffffffffffffffffffffffffffffffffffffffffffffffffffffffff1916827bffffffffffffffffffffffffffffffffffffffffffffffffffffffff1916145b80610868575061086782612b91565b5b9050919050565b6060600061087d6013612bfb565b67ffffffffffffffff81111561089657610895614ce3565b5b6040519080825280602002602001820160405280156108cf57816020015b6108bc614521565b8152602001906001900390816108b45790505b509050600080600090505b6108e46012612bfb565b811015610ae4576000600b6000600984815481106109055761090461510a565b5b906000526020600020015481526020019081526020016000206040518060c00160405290816000820154815260200160018201805461094390615168565b80601f016020809104026020016040519081016040528092919081815260200182805461096f90615168565b80156109bc5780601f10610991576101008083540402835291602001916109bc565b820191906000526020600020905b81548152906001019060200180831161099f57829003601f168201915b50505050508152602001600282015481526020016003820160009054906101000a900473ffffffffffffffffffffffffffffffffffffffff1673ffffffffffffffffffffffffffffffffffffffff1673ffffffffffffffffffffffffffffffffffffffff1681526020016004820160009054906101000a900473ffffffffffffffffffffffffffffffffffffffff1673ffffffffffffffffffffffffffffffffffffffff1673ffffffffffffffffffffffffffffffffffffffff1681526020016004820160149054906101000a900460ff16151515158152505090508060a0015115610ad05780848481518110610ab657610ab561510a565b5b60200260200101819052508280610acc906151c8565b9350505b508080610adc906151c8565b9150506108da565b50819250505090565b606060008054610afc90615168565b80601f0160208091040260200160405190810160405280929190818152602001828054610b2890615168565b8015610b755780601f10610b4a57610100808354040283529160200191610b75565b820191906000526020600020905b815481529060010190602001808311610b5857829003601f168201915b5050505050905090565b6000610b8a82612c09565b610bc9576040517f08c379a0000000000000000000000000000000000000000000000000000000008152600401610bc090615282565b60405180910390fd5b6004600083815260200190815260200160002060009054906101000a900473ffffffffffffffffffffffffffffffffffffffff169050919050565b6000610c0f82611f47565b90508073ffffffffffffffffffffffffffffffffffffffff168373ffffffffffffffffffffffffffffffffffffffff1603610c7f576040517f08c379a0000000000000000000000000000000000000000000000000000000008152600401610c7690615314565b60405180910390fd5b8073ffffffffffffffffffffffffffffffffffffffff16610c9e612c75565b73ffffffffffffffffffffffffffffffffffffffff161480610ccd5750610ccc81610cc7612c75565b612a06565b5b610d0c576040517f08c379a0000000000000000000000000000000000000000000000000000000008152600401610d03906153a6565b60405180910390fd5b610d168383612c7d565b505050565b60606000601160008473ffffffffffffffffffffffffffffffffffffffff1673ffffffffffffffffffffffffffffffffffffffff1681526020019081526020016000205467ffffffffffffffff811115610d7857610d77614ce3565b5b604051908082528060200260200182016040528015610db157816020015b610d9e614521565b815260200190600190039081610d965790505b509050600080600090505b60098054905081101561102c576000600b600060098481548110610de357610de261510a565b5b906000526020600020015481526020019081526020016000206040518060c001604052908160008201548152602001600182018054610e2190615168565b80601f0160208091040260200160405190810160405280929190818152602001828054610e4d90615168565b8015610e9a5780601f10610e6f57610100808354040283529160200191610e9a565b820191906000526020600020905b815481529060010190602001808311610e7d57829003601f168201915b50505050508152602001600282015481526020016003820160009054906101000a900473ffffffffffffffffffffffffffffffffffffffff1673ffffffffffffffffffffffffffffffffffffffff1673ffffffffffffffffffffffffffffffffffffffff1681526020016004820160009054906101000a900473ffffffffffffffffffffffffffffffffffffffff1673ffffffffffffffffffffffffffffffffffffffff1673ffffffffffffffffffffffffffffffffffffffff1681526020016004820160149054906101000a900460ff16151515158152505090508573ffffffffffffffffffffffffffffffffffffffff16816060015173ffffffffffffffffffffffffffffffffffffffff16148015610fe557508573ffffffffffffffffffffffffffffffffffffffff16816080015173ffffffffffffffffffffffffffffffffffffffff1614155b156110185780848481518110610ffe57610ffd61510a565b5b60200260200101819052508280611014906151c8565b9350505b508080611024906151c8565b915050610dbc565b508192505050919050565b61103f614585565b6040518060a00160405280600f60008573ffffffffffffffffffffffffffffffffffffffff1673ffffffffffffffffffffffffffffffffffffffff16815260200190815260200160002054815260200161109884612192565b8152602001601060008573ffffffffffffffffffffffffffffffffffffffff1673ffffffffffffffffffffffffffffffffffffffff168152602001908152602001600020548152602001601060008573ffffffffffffffffffffffffffffffffffffffff1673ffffffffffffffffffffffffffffffffffffffff1681526020019081526020016000205461112b85612192565b61113591906153c6565b8152602001601160008573ffffffffffffffffffffffffffffffffffffffff1673ffffffffffffffffffffffffffffffffffffffff168152602001908152602001600020548152509050919050565b60606000601060008473ffffffffffffffffffffffffffffffffffffffff1673ffffffffffffffffffffffffffffffffffffffff168152602001908152602001600020546111d184612192565b6111db91906153c6565b67ffffffffffffffff8111156111f4576111f3614ce3565b5b60405190808252806020026020018201604052801561122d57816020015b61121a614521565b8152602001906001900390816112125790505b509050600080600090505b60098054905081101561147a576000600b60006009848154811061125f5761125e61510a565b5b906000526020600020015481526020019081526020016000206040518060c00160405290816000820154815260200160018201805461129d90615168565b80601f01602080910402602001604051908101604052809291908181526020018280546112c990615168565b80156113165780601f106112eb57610100808354040283529160200191611316565b820191906000526020600020905b8154815290600101906020018083116112f957829003601f168201915b50505050508152602001600282015481526020016003820160009054906101000a900473ffffffffffffffffffffffffffffffffffffffff1673ffffffffffffffffffffffffffffffffffffffff1673ffffffffffffffffffffffffffffffffffffffff1681526020016004820160009054906101000a900473ffffffffffffffffffffffffffffffffffffffff1673ffffffffffffffffffffffffffffffffffffffff1673ffffffffffffffffffffffffffffffffffffffff1681526020016004820160149054906101000a900460ff16151515158152505090508573ffffffffffffffffffffffffffffffffffffffff16816080015173ffffffffffffffffffffffffffffffffffffffff1614801561143357508060a00151155b15611466578084848151811061144c5761144b61510a565b5b60200260200101819052508280611462906151c8565b9350505b508080611472906151c8565b915050611238565b508192505050919050565b611496611490612c75565b82612d36565b6114d5576040517f08c379a00000000000000000000000000000000000000000000000000000000081526004016114cc9061546c565b60405180910390fd5b6114e0838383612e14565b505050565b6114ee83611f47565b73ffffffffffffffffffffffffffffffffffffffff163373ffffffffffffffffffffffffffffffffffffffff161461152557600080fd5b8061155357600b600084815260200190815260200160002060040160149054906101000a900460ff16611579565b600b600084815260200190815260200160002060040160149054906101000a900460ff16155b61158257600080fd5b80156116115781600b6000858152602001908152602001600020600201819055506001601060006115b286611f47565b73ffffffffffffffffffffffffffffffffffffffff1673ffffffffffffffffffffffffffffffffffffffff16815260200190815260200160002060008282546115fb919061548c565b9250508190555061160c601361307a565b61167b565b60016010600061162086611f47565b73ffffffffffffffffffffffffffffffffffffffff1673ffffffffffffffffffffffffffffffffffffffff168152602001908152602001600020600082825461166991906153c6565b9250508190555061167a6013613090565b5b80600b600085815260200190815260200160002060040160146101000a81548160ff021916908315150217905550505050565b606060006116bb83612192565b67ffffffffffffffff8111156116d4576116d3614ce3565b5b60405190808252806020026020018201604052801561170d57816020015b6116fa614521565b8152602001906001900390816116f25790505b509050600080600090505b6117226012612bfb565b81101561194f576000600b6000600984815481106117435761174261510a565b5b906000526020600020015481526020019081526020016000206040518060c00160405290816000820154815260200160018201805461178190615168565b80601f01602080910402602001604051908101604052809291908181526020018280546117ad90615168565b80156117fa5780601f106117cf576101008083540402835291602001916117fa565b820191906000526020600020905b8154815290600101906020018083116117dd57829003601f168201915b50505050508152602001600282015481526020016003820160009054906101000a900473ffffffffffffffffffffffffffffffffffffffff1673ffffffffffffffffffffffffffffffffffffffff1673ffffffffffffffffffffffffffffffffffffffff1681526020016004820160009054906101000a900473ffffffffffffffffffffffffffffffffffffffff1673ffffffffffffffffffffffffffffffffffffffff1673ffffffffffffffffffffffffffffffffffffffff1681526020016004820160149054906101000a900460ff16151515158152505090508573ffffffffffffffffffffffffffffffffffffffff16816080015173ffffffffffffffffffffffffffffffffffffffff160361193b57808484815181106119215761192061510a565b5b60200260200101819052508280611937906151c8565b9350505b508080611947906151c8565b915050611718565b508192505050919050565b60606000600f60008473ffffffffffffffffffffffffffffffffffffffff1673ffffffffffffffffffffffffffffffffffffffff1681526020019081526020016000205467ffffffffffffffff8111156119b7576119b6614ce3565b5b6040519080825280602002602001820160405280156119f057816020015b6119dd614521565b8152602001906001900390816119d55790505b509050600080600090505b611a056012612bfb565b811015611c32576000600b600060098481548110611a2657611a2561510a565b5b906000526020600020015481526020019081526020016000206040518060c001604052908160008201548152602001600182018054611a6490615168565b80601f0160208091040260200160405190810160405280929190818152602001828054611a9090615168565b8015611add5780601f10611ab257610100808354040283529160200191611add565b820191906000526020600020905b815481529060010190602001808311611ac057829003601f168201915b50505050508152602001600282015481526020016003820160009054906101000a900473ffffffffffffffffffffffffffffffffffffffff1673ffffffffffffffffffffffffffffffffffffffff1673ffffffffffffffffffffffffffffffffffffffff1681526020016004820160009054906101000a900473ffffffffffffffffffffffffffffffffffffffff1673ffffffffffffffffffffffffffffffffffffffff1673ffffffffffffffffffffffffffffffffffffffff1681526020016004820160149054906101000a900460ff16151515158152505090508573ffffffffffffffffffffffffffffffffffffffff16816060015173ffffffffffffffffffffffffffffffffffffffff1603611c1e5780848481518110611c0457611c0361510a565b5b60200260200101819052508280611c1a906151c8565b9350505b508080611c2a906151c8565b9150506119fb565b508192505050919050565b611c58838383604051806020016040528060008152506126e5565b505050565b6000611c6882611f47565b90508073ffffffffffffffffffffffffffffffffffffffff163373ffffffffffffffffffffffffffffffffffffffff1614158015611d085750600b600083815260200190815260200160002060030160009054906101000a900473ffffffffffffffffffffffffffffffffffffffff1673ffffffffffffffffffffffffffffffffffffffff163373ffffffffffffffffffffffffffffffffffffffff1614155b611d1157600080fd5b600b6000838152602001908152602001600020600201543414611d3357600080fd5b6001601060008373ffffffffffffffffffffffffffffffffffffffff1673ffffffffffffffffffffffffffffffffffffffff1681526020019081526020016000206000828254611d8391906153c6565b925050819055506000600b600084815260200190815260200160002060040160146101000a81548160ff021916908315150217905550611dc36013613090565b6001601160008373ffffffffffffffffffffffffffffffffffffffff1673ffffffffffffffffffffffffffffffffffffffff1681526020019081526020016000206000828254611e13919061548c565b9250508190555033600b600084815260200190815260200160002060040160006101000a81548173ffffffffffffffffffffffffffffffffffffffff021916908373ffffffffffffffffffffffffffffffffffffffff160217905550611e7a813384612e14565b8073ffffffffffffffffffffffffffffffffffffffff166108fc620186a060085434611ea691906154e2565b611eb0919061556b565b34611ebb91906153c6565b9081150290604051600060405180830381858888f19350505050158015611ee6573d6000803e3d6000fd5b505050565b600a83604051611efb91906155d8565b908152602001604051809103902060009054906101000a900460ff1615611f2157600080fd5b611f2b33856130ec565b611f35848461310a565b611f418484848461317e565b50505050565b6000806002600084815260200190815260200160002060009054906101000a900473ffffffffffffffffffffffffffffffffffffffff169050600073ffffffffffffffffffffffffffffffffffffffff168173ffffffffffffffffffffffffffffffffffffffff1603611fef576040517f08c379a0000000000000000000000000000000000000000000000000000000008152600401611fe690615661565b60405180910390fd5b80915050919050565b612000614521565b600b60008381526020019081526020016000206040518060c00160405290816000820154815260200160018201805461203890615168565b80601f016020809104026020016040519081016040528092919081815260200182805461206490615168565b80156120b15780601f10612086576101008083540402835291602001916120b1565b820191906000526020600020905b81548152906001019060200180831161209457829003601f168201915b50505050508152602001600282015481526020016003820160009054906101000a900473ffffffffffffffffffffffffffffffffffffffff1673ffffffffffffffffffffffffffffffffffffffff1673ffffffffffffffffffffffffffffffffffffffff1681526020016004820160009054906101000a900473ffffffffffffffffffffffffffffffffffffffff1673ffffffffffffffffffffffffffffffffffffffff1673ffffffffffffffffffffffffffffffffffffffff1681526020016004820160149054906101000a900460ff1615151515815250509050919050565b60008073ffffffffffffffffffffffffffffffffffffffff168273ffffffffffffffffffffffffffffffffffffffff1603612202576040517f08c379a00000000000000000000000000000000000000000000000000000000081526004016121f9906156f3565b60405180910390fd5b600360008373ffffffffffffffffffffffffffffffffffffffff1673ffffffffffffffffffffffffffffffffffffffff168152602001908152602001600020549050919050565b612251612c75565b73ffffffffffffffffffffffffffffffffffffffff1661226f612613565b73ffffffffffffffffffffffffffffffffffffffff16146122c5576040517f08c379a00000000000000000000000000000000000000000000000000000000081526004016122bc9061575f565b60405180910390fd5b6122cf60006133e1565b565b60606000601060008473ffffffffffffffffffffffffffffffffffffffff1673ffffffffffffffffffffffffffffffffffffffff1681526020019081526020016000205467ffffffffffffffff81111561232e5761232d614ce3565b5b60405190808252806020026020018201604052801561236757816020015b612354614521565b81526020019060019003908161234c5790505b509050600080600090505b6009805490508110156125b3576000600b6000600984815481106123995761239861510a565b5b906000526020600020015481526020019081526020016000206040518060c0016040529081600082015481526020016001820180546123d790615168565b80601f016020809104026020016040519081016040528092919081815260200182805461240390615168565b80156124505780601f1061242557610100808354040283529160200191612450565b820191906000526020600020905b81548152906001019060200180831161243357829003601f168201915b50505050508152602001600282015481526020016003820160009054906101000a900473ffffffffffffffffffffffffffffffffffffffff1673ffffffffffffffffffffffffffffffffffffffff1673ffffffffffffffffffffffffffffffffffffffff1681526020016004820160009054906101000a900473ffffffffffffffffffffffffffffffffffffffff1673ffffffffffffffffffffffffffffffffffffffff1673ffffffffffffffffffffffffffffffffffffffff1681526020016004820160149054906101000a900460ff16151515158152505090508573ffffffffffffffffffffffffffffffffffffffff16816080015173ffffffffffffffffffffffffffffffffffffffff1614801561256c57508060a001515b1561259f57808484815181106125855761258461510a565b5b6020026020010181905250828061259b906151c8565b9350505b5080806125ab906151c8565b915050612372565b508192505050919050565b6125c781611f47565b73ffffffffffffffffffffffffffffffffffffffff163373ffffffffffffffffffffffffffffffffffffffff16146125fe57600080fd5b612607816134a7565b612610816134fa565b50565b6000600760009054906101000a900473ffffffffffffffffffffffffffffffffffffffff16905090565b60606001805461264c90615168565b80601f016020809104026020016040519081016040528092919081815260200182805461267890615168565b80156126c55780601f1061269a576101008083540402835291602001916126c5565b820191906000526020600020905b8154815290600101906020018083116126a857829003601f168201915b5050505050905090565b6126e16126da612c75565b8383613824565b5050565b6126f66126f0612c75565b83612d36565b612735576040517f08c379a000000000000000000000000000000000000000000000000000000000815260040161272c9061546c565b60405180910390fd5b61274184848484613990565b50505050565b606061275282612c09565b612791576040517f08c379a0000000000000000000000000000000000000000000000000000000008152600401612788906157f1565b60405180910390fd5b60006006600084815260200190815260200160002080546127b190615168565b80601f01602080910402602001604051908101604052809291908181526020018280546127dd90615168565b801561282a5780601f106127ff5761010080835404028352916020019161282a565b820191906000526020600020905b81548152906001019060200180831161280d57829003601f168201915b50505050509050600061283b6139ec565b90506000815103612850578192505050612893565b60008251111561288557808260405160200161286d929190615811565b60405160208183030381529060405292505050612893565b61288e84613a03565b925050505b919050565b6128a0612c75565b73ffffffffffffffffffffffffffffffffffffffff166128be612613565b73ffffffffffffffffffffffffffffffffffffffff1614612914576040517f08c379a000000000000000000000000000000000000000000000000000000000815260040161290b9061575f565b60405180910390fd5b620186a0811061292357600080fd5b8060088190555050565b612935612c75565b73ffffffffffffffffffffffffffffffffffffffff16612953612613565b73ffffffffffffffffffffffffffffffffffffffff16146129a9576040517f08c379a00000000000000000000000000000000000000000000000000000000081526004016129a09061575f565b60405180910390fd5b478111156129b657600080fd5b3373ffffffffffffffffffffffffffffffffffffffff166108fc479081150290604051600060405180830381858888f193505050501580156129fc573d6000803e3d6000fd5b5050565b60085481565b6000600560008473ffffffffffffffffffffffffffffffffffffffff1673ffffffffffffffffffffffffffffffffffffffff16815260200190815260200160002060008373ffffffffffffffffffffffffffffffffffffffff1673ffffffffffffffffffffffffffffffffffffffff16815260200190815260200160002060009054906101000a900460ff16905092915050565b612aa2612c75565b73ffffffffffffffffffffffffffffffffffffffff16612ac0612613565b73ffffffffffffffffffffffffffffffffffffffff1614612b16576040517f08c379a0000000000000000000000000000000000000000000000000000000008152600401612b0d9061575f565b60405180910390fd5b600073ffffffffffffffffffffffffffffffffffffffff168173ffffffffffffffffffffffffffffffffffffffff1603612b85576040517f08c379a0000000000000000000000000000000000000000000000000000000008152600401612b7c906158a7565b60405180910390fd5b612b8e816133e1565b50565b60007f01ffc9a7000000000000000000000000000000000000000000000000000000007bffffffffffffffffffffffffffffffffffffffffffffffffffffffff1916827bffffffffffffffffffffffffffffffffffffffffffffffffffffffff1916149050919050565b600081600001549050919050565b60008073ffffffffffffffffffffffffffffffffffffffff166002600084815260200190815260200160002060009054906101000a900473ffffffffffffffffffffffffffffffffffffffff1673ffffffffffffffffffffffffffffffffffffffff1614159050919050565b600033905090565b816004600083815260200190815260200160002060006101000a81548173ffffffffffffffffffffffffffffffffffffffff021916908373ffffffffffffffffffffffffffffffffffffffff160217905550808273ffffffffffffffffffffffffffffffffffffffff16612cf083611f47565b73ffffffffffffffffffffffffffffffffffffffff167f8c5be1e5ebec7d5bd14f71427d1e84f3dd0314c0f7b2291e5b200ac8c7c3b92560405160405180910390a45050565b6000612d4182612c09565b612d80576040517f08c379a0000000000000000000000000000000000000000000000000000000008152600401612d7790615939565b60405180910390fd5b6000612d8b83611f47565b90508073ffffffffffffffffffffffffffffffffffffffff168473ffffffffffffffffffffffffffffffffffffffff161480612dcd5750612dcc8185612a06565b5b80612e0b57508373ffffffffffffffffffffffffffffffffffffffff16612df384610b7f565b73ffffffffffffffffffffffffffffffffffffffff16145b91505092915050565b8273ffffffffffffffffffffffffffffffffffffffff16612e3482611f47565b73ffffffffffffffffffffffffffffffffffffffff1614612e8a576040517f08c379a0000000000000000000000000000000000000000000000000000000008152600401612e81906159cb565b60405180910390fd5b600073ffffffffffffffffffffffffffffffffffffffff168273ffffffffffffffffffffffffffffffffffffffff1603612ef9576040517f08c379a0000000000000000000000000000000000000000000000000000000008152600401612ef090615a5d565b60405180910390fd5b612f04838383613aaa565b612f0f600082612c7d565b6001600360008573ffffffffffffffffffffffffffffffffffffffff1673ffffffffffffffffffffffffffffffffffffffff1681526020019081526020016000206000828254612f5f91906153c6565b925050819055506001600360008473ffffffffffffffffffffffffffffffffffffffff1673ffffffffffffffffffffffffffffffffffffffff1681526020019081526020016000206000828254612fb6919061548c565b92505081905550816002600083815260200190815260200160002060006101000a81548173ffffffffffffffffffffffffffffffffffffffff021916908373ffffffffffffffffffffffffffffffffffffffff160217905550808273ffffffffffffffffffffffffffffffffffffffff168473ffffffffffffffffffffffffffffffffffffffff167fddf252ad1be2c89b69c2b068fc378daa952ba7f163c4a11628f55a4df523b3ef60405160405180910390a4613075838383613bbc565b505050565b6001816000016000828254019250508190555050565b600081600001549050600081116130dc576040517f08c379a00000000000000000000000000000000000000000000000000000000081526004016130d390615ac9565b60405180910390fd5b6001810382600001819055505050565b613106828260405180602001604052806000815250613bc1565b5050565b61311382612c09565b613152576040517f08c379a000000000000000000000000000000000000000000000000000000000815260040161314990615b5b565b60405180910390fd5b806006600084815260200190815260200160002090805190602001906131799291906145a7565b505050565b6000821161318b57600080fd5b6040518060c001604052808581526020018481526020018381526020013373ffffffffffffffffffffffffffffffffffffffff1681526020013373ffffffffffffffffffffffffffffffffffffffff168152602001821515815250600b600086815260200190815260200160002060008201518160000155602082015181600101908051906020019061321f9291906145a7565b506040820151816002015560608201518160030160006101000a81548173ffffffffffffffffffffffffffffffffffffffff021916908373ffffffffffffffffffffffffffffffffffffffff16021790555060808201518160040160006101000a81548173ffffffffffffffffffffffffffffffffffffffff021916908373ffffffffffffffffffffffffffffffffffffffff16021790555060a08201518160040160146101000a81548160ff0219169083151502179055509050506001600a846040516132ed91906155d8565b908152602001604051809103902060006101000a81548160ff02191690831515021790555061331c601261307a565b6001600f60003373ffffffffffffffffffffffffffffffffffffffff1673ffffffffffffffffffffffffffffffffffffffff168152602001908152602001600020600082825461336c919061548c565b9250508190555080156133db57613383601361307a565b6001601060003373ffffffffffffffffffffffffffffffffffffffff1673ffffffffffffffffffffffffffffffffffffffff16815260200190815260200160002060008282546133d3919061548c565b925050819055505b50505050565b6000600760009054906101000a900473ffffffffffffffffffffffffffffffffffffffff16905081600760006101000a81548173ffffffffffffffffffffffffffffffffffffffff021916908373ffffffffffffffffffffffffffffffffffffffff1602179055508173ffffffffffffffffffffffffffffffffffffffff168173ffffffffffffffffffffffffffffffffffffffff167f8be0079c531659141344cd1fd0a4f28419497f9722a3daafe3b4186f6b6457e060405160405180910390a35050565b6134b081613c1c565b60006006600083815260200190815260200160002080546134d090615168565b9050146134f7576006600082815260200190815260200160002060006134f6919061462d565b5b50565b6000600b60008381526020019081526020016000206040518060c00160405290816000820154815260200160018201805461353490615168565b80601f016020809104026020016040519081016040528092919081815260200182805461356090615168565b80156135ad5780601f10613582576101008083540402835291602001916135ad565b820191906000526020600020905b81548152906001019060200180831161359057829003601f168201915b50505050508152602001600282015481526020016003820160009054906101000a900473ffffffffffffffffffffffffffffffffffffffff1673ffffffffffffffffffffffffffffffffffffffff1673ffffffffffffffffffffffffffffffffffffffff1681526020016004820160009054906101000a900473ffffffffffffffffffffffffffffffffffffffff1673ffffffffffffffffffffffffffffffffffffffff1673ffffffffffffffffffffffffffffffffffffffff1681526020016004820160149054906101000a900460ff1615151515815250509050600a816020015160405161369d91906155d8565b908152602001604051809103902060006101000a81549060ff0219169055600b60008381526020019081526020016000206000808201600090556001820160006136e7919061462d565b60028201600090556003820160006101000a81549073ffffffffffffffffffffffffffffffffffffffff02191690556004820160006101000a81549073ffffffffffffffffffffffffffffffffffffffff02191690556004820160146101000a81549060ff0219169055505061375d6012613090565b6001600f60003373ffffffffffffffffffffffffffffffffffffffff1673ffffffffffffffffffffffffffffffffffffffff16815260200190815260200160002060008282546137ad91906153c6565b925050819055508060a0015115613820576137c86013613090565b6001601060003373ffffffffffffffffffffffffffffffffffffffff1673ffffffffffffffffffffffffffffffffffffffff1681526020019081526020016000206000828254613818919061548c565b925050819055505b5050565b8173ffffffffffffffffffffffffffffffffffffffff168373ffffffffffffffffffffffffffffffffffffffff1603613892576040517f08c379a000000000000000000000000000000000000000000000000000000000815260040161388990615bc7565b60405180910390fd5b80600560008573ffffffffffffffffffffffffffffffffffffffff1673ffffffffffffffffffffffffffffffffffffffff16815260200190815260200160002060008473ffffffffffffffffffffffffffffffffffffffff1673ffffffffffffffffffffffffffffffffffffffff16815260200190815260200160002060006101000a81548160ff0219169083151502179055508173ffffffffffffffffffffffffffffffffffffffff168373ffffffffffffffffffffffffffffffffffffffff167f17307eab39ab6107e8899845ad3d59bd9653f200f220920489ca2b5937696c3183604051613983919061473e565b60405180910390a3505050565b61399b848484612e14565b6139a784848484613d39565b6139e6576040517f08c379a00000000000000000000000000000000000000000000000000000000081526004016139dd90615c59565b60405180910390fd5b50505050565b606060405180602001604052806000815250905090565b6060613a0e82612c09565b613a4d576040517f08c379a0000000000000000000000000000000000000000000000000000000008152600401613a4490615ceb565b60405180910390fd5b6000613a576139ec565b90506000815111613a775760405180602001604052806000815250613aa2565b80613a8184613ec0565b604051602001613a92929190615811565b6040516020818303038152906040525b915050919050565b613ab5838383614020565b600073ffffffffffffffffffffffffffffffffffffffff168373ffffffffffffffffffffffffffffffffffffffff1603613af757613af281614025565b613b36565b8173ffffffffffffffffffffffffffffffffffffffff168373ffffffffffffffffffffffffffffffffffffffff1614613b3557613b34818461406e565b5b5b600073ffffffffffffffffffffffffffffffffffffffff168273ffffffffffffffffffffffffffffffffffffffff1603613b7857613b73816141db565b613bb7565b8273ffffffffffffffffffffffffffffffffffffffff168273ffffffffffffffffffffffffffffffffffffffff1614613bb657613bb581836142a6565b5b5b505050565b505050565b613bcb8383614325565b613bd86000848484613d39565b613c17576040517f08c379a0000000000000000000000000000000000000000000000000000000008152600401613c0e90615c59565b60405180910390fd5b505050565b6000613c2782611f47565b9050613c3581600084613aaa565b613c40600083612c7d565b6001600360008373ffffffffffffffffffffffffffffffffffffffff1673ffffffffffffffffffffffffffffffffffffffff1681526020019081526020016000206000828254613c9091906153c6565b925050819055506002600083815260200190815260200160002060006101000a81549073ffffffffffffffffffffffffffffffffffffffff021916905581600073ffffffffffffffffffffffffffffffffffffffff168273ffffffffffffffffffffffffffffffffffffffff167fddf252ad1be2c89b69c2b068fc378daa952ba7f163c4a11628f55a4df523b3ef60405160405180910390a4613d3581600084613bbc565b5050565b6000613d5a8473ffffffffffffffffffffffffffffffffffffffff166144fe565b15613eb3578373ffffffffffffffffffffffffffffffffffffffff1663150b7a02613d83612c75565b8786866040518563ffffffff1660e01b8152600401613da59493929190615d60565b6020604051808303816000875af1925050508015613de157506040513d601f19601f82011682018060405250810190613dde9190615dc1565b60015b613e63573d8060008114613e11576040519150601f19603f3d011682016040523d82523d6000602084013e613e16565b606091505b506000815103613e5b576040517f08c379a0000000000000000000000000000000000000000000000000000000008152600401613e5290615c59565b60405180910390fd5b805181602001fd5b63150b7a0260e01b7bffffffffffffffffffffffffffffffffffffffffffffffffffffffff1916817bffffffffffffffffffffffffffffffffffffffffffffffffffffffff191614915050613eb8565b600190505b949350505050565b606060008203613f07576040518060400160405280600181526020017f3000000000000000000000000000000000000000000000000000000000000000815250905061401b565b600082905060005b60008214613f39578080613f22906151c8565b915050600a82613f32919061556b565b9150613f0f565b60008167ffffffffffffffff811115613f5557613f54614ce3565b5b6040519080825280601f01601f191660200182016040528015613f875781602001600182028036833780820191505090505b5090505b6000851461401457600182613fa091906153c6565b9150600a85613faf9190615dee565b6030613fbb919061548c565b60f81b818381518110613fd157613fd061510a565b5b60200101907effffffffffffffffffffffffffffffffffffffffffffffffffffffffffffff1916908160001a905350600a8561400d919061556b565b9450613f8b565b8093505050505b919050565b505050565b600980549050600c600083815260200190815260200160002081905550600981908060018154018082558091505060019003906000526020600020016000909190919091505550565b6000600161407b83612192565b61408591906153c6565b90506000600e600085815260200190815260200160002054905080821461416a576000600d60008573ffffffffffffffffffffffffffffffffffffffff1673ffffffffffffffffffffffffffffffffffffffff168152602001908152602001600020600084815260200190815260200160002054905080600d60008673ffffffffffffffffffffffffffffffffffffffff1673ffffffffffffffffffffffffffffffffffffffff16815260200190815260200160002060008481526020019081526020016000208190555081600e600083815260200190815260200160002081905550505b600d60008473ffffffffffffffffffffffffffffffffffffffff1673ffffffffffffffffffffffffffffffffffffffff168152602001908152602001600020600083815260200190815260200160002060009055600e60008581526020019081526020016000206000905550505050565b6000600c600083815260200190815260200160002054905060006009600160098054905061420991906153c6565b8154811061421a5761421961510a565b5b90600052602060002001549050806009838154811061423c5761423b61510a565b5b906000526020600020018190555081600c600083815260200190815260200160002081905550600c600084815260200190815260200160002060009055600980548061428b5761428a615e1f565b5b60019003818190600052602060002001600090559055505050565b60006142b182612192565b905082600d60008473ffffffffffffffffffffffffffffffffffffffff1673ffffffffffffffffffffffffffffffffffffffff16815260200190815260200160002060008381526020019081526020016000208190555080600e600085815260200190815260200160002081905550505050565b600073ffffffffffffffffffffffffffffffffffffffff168273ffffffffffffffffffffffffffffffffffffffff1603614394576040517f08c379a000000000000000000000000000000000000000000000000000000000815260040161438b90615e9a565b60405180910390fd5b61439d81612c09565b156143dd576040517f08c379a00000000000000000000000000000000000000000000000000000000081526004016143d490615f06565b60405180910390fd5b6143e960008383613aaa565b6001600360008473ffffffffffffffffffffffffffffffffffffffff1673ffffffffffffffffffffffffffffffffffffffff1681526020019081526020016000206000828254614439919061548c565b92505081905550816002600083815260200190815260200160002060006101000a81548173ffffffffffffffffffffffffffffffffffffffff021916908373ffffffffffffffffffffffffffffffffffffffff160217905550808273ffffffffffffffffffffffffffffffffffffffff16600073ffffffffffffffffffffffffffffffffffffffff167fddf252ad1be2c89b69c2b068fc378daa952ba7f163c4a11628f55a4df523b3ef60405160405180910390a46144fa60008383613bbc565b5050565b6000808273ffffffffffffffffffffffffffffffffffffffff163b119050919050565b6040518060c00160405280600081526020016060815260200160008152602001600073ffffffffffffffffffffffffffffffffffffffff168152602001600073ffffffffffffffffffffffffffffffffffffffff1681526020016000151581525090565b6040518060a00160405280600590602082028036833780820191505090505090565b8280546145b390615168565b90600052602060002090601f0160209004810192826145d5576000855561461c565b82601f106145ee57805160ff191683800117855561461c565b8280016001018555821561461c579182015b8281111561461b578251825591602001919060010190614600565b5b509050614629919061466d565b5090565b50805461463990615168565b6000825580601f1061464b575061466a565b601f016020900490600052602060002090810190614669919061466d565b5b50565b5b8082111561468657600081600090555060010161466e565b5090565b6000604051905090565b600080fd5b600080fd5b60007fffffffff0000000000000000000000000000000000000000000000000000000082169050919050565b6146d38161469e565b81146146de57600080fd5b50565b6000813590506146f0816146ca565b92915050565b60006020828403121561470c5761470b614694565b5b600061471a848285016146e1565b91505092915050565b60008115159050919050565b61473881614723565b82525050565b6000602082019050614753600083018461472f565b92915050565b600081519050919050565b600082825260208201905092915050565b6000819050602082019050919050565b6000819050919050565b61479881614785565b82525050565b600081519050919050565b600082825260208201905092915050565b60005b838110156147d85780820151818401526020810190506147bd565b838111156147e7576000848401525b50505050565b6000601f19601f8301169050919050565b60006148098261479e565b61481381856147a9565b93506148238185602086016147ba565b61482c816147ed565b840191505092915050565b600073ffffffffffffffffffffffffffffffffffffffff82169050919050565b600061486282614837565b9050919050565b61487281614857565b82525050565b61488181614723565b82525050565b600060c08301600083015161489f600086018261478f565b50602083015184820360208601526148b782826147fe565b91505060408301516148cc604086018261478f565b5060608301516148df6060860182614869565b5060808301516148f26080860182614869565b5060a083015161490560a0860182614878565b508091505092915050565b600061491c8383614887565b905092915050565b6000602082019050919050565b600061493c82614759565b6149468185614764565b93508360208202850161495885614775565b8060005b8581101561499457848403895281516149758582614910565b945061498083614924565b925060208a0199505060018101905061495c565b50829750879550505050505092915050565b600060208201905081810360008301526149c08184614931565b905092915050565b600082825260208201905092915050565b60006149e48261479e565b6149ee81856149c8565b93506149fe8185602086016147ba565b614a07816147ed565b840191505092915050565b60006020820190508181036000830152614a2c81846149d9565b905092915050565b614a3d81614785565b8114614a4857600080fd5b50565b600081359050614a5a81614a34565b92915050565b600060208284031215614a7657614a75614694565b5b6000614a8484828501614a4b565b91505092915050565b614a9681614857565b82525050565b6000602082019050614ab16000830184614a8d565b92915050565b614ac081614857565b8114614acb57600080fd5b50565b600081359050614add81614ab7565b92915050565b60008060408385031215614afa57614af9614694565b5b6000614b0885828601614ace565b9250506020614b1985828601614a4b565b9150509250929050565b600060208284031215614b3957614b38614694565b5b6000614b4784828501614ace565b91505092915050565b600060059050919050565b600081905092915050565b6000819050919050565b6000614b7c838361478f565b60208301905092915050565b6000602082019050919050565b614b9e81614b50565b614ba88184614b5b565b9250614bb382614b66565b8060005b83811015614be4578151614bcb8782614b70565b9650614bd683614b88565b925050600181019050614bb7565b505050505050565b600060a082019050614c016000830184614b95565b92915050565b600080600060608486031215614c2057614c1f614694565b5b6000614c2e86828701614ace565b9350506020614c3f86828701614ace565b9250506040614c5086828701614a4b565b9150509250925092565b614c6381614723565b8114614c6e57600080fd5b50565b600081359050614c8081614c5a565b92915050565b600080600060608486031215614c9f57614c9e614694565b5b6000614cad86828701614a4b565b9350506020614cbe86828701614a4b565b9250506040614ccf86828701614c71565b9150509250925092565b600080fd5b600080fd5b7f4e487b7100000000000000000000000000000000000000000000000000000000600052604160045260246000fd5b614d1b826147ed565b810181811067ffffffffffffffff82111715614d3a57614d39614ce3565b5b80604052505050565b6000614d4d61468a565b9050614d598282614d12565b919050565b600067ffffffffffffffff821115614d7957614d78614ce3565b5b614d82826147ed565b9050602081019050919050565b82818337600083830152505050565b6000614db1614dac84614d5e565b614d43565b905082815260208101848484011115614dcd57614dcc614cde565b5b614dd8848285614d8f565b509392505050565b600082601f830112614df557614df4614cd9565b5b8135614e05848260208601614d9e565b91505092915050565b60008060008060808587031215614e2857614e27614694565b5b6000614e3687828801614a4b565b945050602085013567ffffffffffffffff811115614e5757614e56614699565b5b614e6387828801614de0565b9350506040614e7487828801614a4b565b9250506060614e8587828801614c71565b91505092959194509250565b600060c083016000830151614ea9600086018261478f565b5060208301518482036020860152614ec182826147fe565b9150506040830151614ed6604086018261478f565b506060830151614ee96060860182614869565b506080830151614efc6080860182614869565b5060a0830151614f0f60a0860182614878565b508091505092915050565b60006020820190508181036000830152614f348184614e91565b905092915050565b614f4581614785565b82525050565b6000602082019050614f606000830184614f3c565b92915050565b60008060408385031215614f7d57614f7c614694565b5b6000614f8b85828601614ace565b9250506020614f9c85828601614c71565b9150509250929050565b600067ffffffffffffffff821115614fc157614fc0614ce3565b5b614fca826147ed565b9050602081019050919050565b6000614fea614fe584614fa6565b614d43565b90508281526020810184848401111561500657615005614cde565b5b615011848285614d8f565b509392505050565b600082601f83011261502e5761502d614cd9565b5b813561503e848260208601614fd7565b91505092915050565b6000806000806080858703121561506157615060614694565b5b600061506f87828801614ace565b945050602061508087828801614ace565b935050604061509187828801614a4b565b925050606085013567ffffffffffffffff8111156150b2576150b1614699565b5b6150be87828801615019565b91505092959194509250565b600080604083850312156150e1576150e0614694565b5b60006150ef85828601614ace565b925050602061510085828601614ace565b9150509250929050565b7f4e487b7100000000000000000000000000000000000000000000000000000000600052603260045260246000fd5b7f4e487b7100000000000000000000000000000000000000000000000000000000600052602260045260246000fd5b6000600282049050600182168061518057607f821691505b60208210810361519357615192615139565b5b50919050565b7f4e487b7100000000000000000000000000000000000000000000000000000000600052601160045260246000fd5b60006151d382614785565b91507fffffffffffffffffffffffffffffffffffffffffffffffffffffffffffffffff820361520557615204615199565b5b600182019050919050565b7f4552433732313a20617070726f76656420717565727920666f72206e6f6e657860008201527f697374656e7420746f6b656e0000000000000000000000000000000000000000602082015250565b600061526c602c836149c8565b915061527782615210565b604082019050919050565b6000602082019050818103600083015261529b8161525f565b9050919050565b7f4552433732313a20617070726f76616c20746f2063757272656e74206f776e6560008201527f7200000000000000000000000000000000000000000000000000000000000000602082015250565b60006152fe6021836149c8565b9150615309826152a2565b604082019050919050565b6000602082019050818103600083015261532d816152f1565b9050919050565b7f4552433732313a20617070726f76652063616c6c6572206973206e6f74206f7760008201527f6e6572206e6f7220617070726f76656420666f7220616c6c0000000000000000602082015250565b60006153906038836149c8565b915061539b82615334565b604082019050919050565b600060208201905081810360008301526153bf81615383565b9050919050565b60006153d182614785565b91506153dc83614785565b9250828210156153ef576153ee615199565b5b828203905092915050565b7f4552433732313a207472616e736665722063616c6c6572206973206e6f74206f60008201527f776e6572206e6f7220617070726f766564000000000000000000000000000000602082015250565b60006154566031836149c8565b9150615461826153fa565b604082019050919050565b6000602082019050818103600083015261548581615449565b9050919050565b600061549782614785565b91506154a283614785565b9250827fffffffffffffffffffffffffffffffffffffffffffffffffffffffffffffffff038211156154d7576154d6615199565b5b828201905092915050565b60006154ed82614785565b91506154f883614785565b9250817fffffffffffffffffffffffffffffffffffffffffffffffffffffffffffffffff048311821515161561553157615530615199565b5b828202905092915050565b7f4e487b7100000000000000000000000000000000000000000000000000000000600052601260045260246000fd5b600061557682614785565b915061558183614785565b9250826155915761559061553c565b5b828204905092915050565b600081905092915050565b60006155b28261479e565b6155bc818561559c565b93506155cc8185602086016147ba565b80840191505092915050565b60006155e482846155a7565b915081905092915050565b7f4552433732313a206f776e657220717565727920666f72206e6f6e657869737460008201527f656e7420746f6b656e0000000000000000000000000000000000000000000000602082015250565b600061564b6029836149c8565b9150615656826155ef565b604082019050919050565b6000602082019050818103600083015261567a8161563e565b9050919050565b7f4552433732313a2062616c616e636520717565727920666f7220746865207a6560008201527f726f206164647265737300000000000000000000000000000000000000000000602082015250565b60006156dd602a836149c8565b91506156e882615681565b604082019050919050565b6000602082019050818103600083015261570c816156d0565b9050919050565b7f4f776e61626c653a2063616c6c6572206973206e6f7420746865206f776e6572600082015250565b60006157496020836149c8565b915061575482615713565b602082019050919050565b600060208201905081810360008301526157788161573c565b9050919050565b7f45524337323155524953746f726167653a2055524920717565727920666f722060008201527f6e6f6e6578697374656e7420746f6b656e000000000000000000000000000000602082015250565b60006157db6031836149c8565b91506157e68261577f565b604082019050919050565b6000602082019050818103600083015261580a816157ce565b9050919050565b600061581d82856155a7565b915061582982846155a7565b91508190509392505050565b7f4f776e61626c653a206e6577206f776e657220697320746865207a65726f206160008201527f6464726573730000000000000000000000000000000000000000000000000000602082015250565b60006158916026836149c8565b915061589c82615835565b604082019050919050565b600060208201905081810360008301526158c081615884565b9050919050565b7f4552433732313a206f70657261746f7220717565727920666f72206e6f6e657860008201527f697374656e7420746f6b656e0000000000000000000000000000000000000000602082015250565b6000615923602c836149c8565b915061592e826158c7565b604082019050919050565b6000602082019050818103600083015261595281615916565b9050919050565b7f4552433732313a207472616e736665722066726f6d20696e636f72726563742060008201527f6f776e6572000000000000000000000000000000000000000000000000000000602082015250565b60006159b56025836149c8565b91506159c082615959565b604082019050919050565b600060208201905081810360008301526159e4816159a8565b9050919050565b7f4552433732313a207472616e7366657220746f20746865207a65726f2061646460008201527f7265737300000000000000000000000000000000000000000000000000000000602082015250565b6000615a476024836149c8565b9150615a52826159eb565b604082019050919050565b60006020820190508181036000830152615a7681615a3a565b9050919050565b7f436f756e7465723a2064656372656d656e74206f766572666c6f770000000000600082015250565b6000615ab3601b836149c8565b9150615abe82615a7d565b602082019050919050565b60006020820190508181036000830152615ae281615aa6565b9050919050565b7f45524337323155524953746f726167653a2055524920736574206f66206e6f6e60008201527f6578697374656e7420746f6b656e000000000000000000000000000000000000602082015250565b6000615b45602e836149c8565b9150615b5082615ae9565b604082019050919050565b60006020820190508181036000830152615b7481615b38565b9050919050565b7f4552433732313a20617070726f766520746f2063616c6c657200000000000000600082015250565b6000615bb16019836149c8565b9150615bbc82615b7b565b602082019050919050565b60006020820190508181036000830152615be081615ba4565b9050919050565b7f4552433732313a207472616e7366657220746f206e6f6e20455243373231526560008201527f63656976657220696d706c656d656e7465720000000000000000000000000000602082015250565b6000615c436032836149c8565b9150615c4e82615be7565b604082019050919050565b60006020820190508181036000830152615c7281615c36565b9050919050565b7f4552433732314d657461646174613a2055524920717565727920666f72206e6f60008201527f6e6578697374656e7420746f6b656e0000000000000000000000000000000000602082015250565b6000615cd5602f836149c8565b9150615ce082615c79565b604082019050919050565b60006020820190508181036000830152615d0481615cc8565b9050919050565b600081519050919050565b600082825260208201905092915050565b6000615d3282615d0b565b615d3c8185615d16565b9350615d4c8185602086016147ba565b615d55816147ed565b840191505092915050565b6000608082019050615d756000830187614a8d565b615d826020830186614a8d565b615d8f6040830185614f3c565b8181036060830152615da18184615d27565b905095945050505050565b600081519050615dbb816146ca565b92915050565b600060208284031215615dd757615dd6614694565b5b6000615de584828501615dac565b91505092915050565b6000615df982614785565b9150615e0483614785565b925082615e1457615e1361553c565b5b828206905092915050565b7f4e487b7100000000000000000000000000000000000000000000000000000000600052603160045260246000fd5b7f4552433732313a206d696e7420746f20746865207a65726f2061646472657373600082015250565b6000615e846020836149c8565b9150615e8f82615e4e565b602082019050919050565b60006020820190508181036000830152615eb381615e77565b9050919050565b7f4552433732313a20746f6b656e20616c7265616479206d696e74656400000000600082015250565b6000615ef0601c836149c8565b9150615efb82615eba565b602082019050919050565b60006020820190508181036000830152615f1f81615ee3565b905091905056fea2646970667358221220c24f045e716e3ddd82e55846f65c67cc11671d3046a283b3aa6ffd041cbaaecb64736f6c634300080e0033",
  "immutableReferences": {},
  "source": "// SPDX-License-Identifier: MIT\n\npragma solidity ^0.8.14;\n\nimport \"../node_modules/@openzeppelin/contracts/token/ERC721/extensions/ERC721URIStorage.sol\";\nimport \"../node_modules/@openzeppelin/contracts/access/Ownable.sol\";\nimport \"../node_modules/@openzeppelin/contracts/utils/Counters.sol\";\n\ncontract NFTMarketplace is ERC721URIStorage, Ownable {\n    using Counters for Counters.Counter;\n\n    struct NFTItem {\n        uint256 tokenId;\n        string tokenURI;\n        uint256 price;\n        address creator;\n        address owner;\n        bool isForSale;\n    }\n\n    uint256 public serviceCharge = 5000; // 5% by default. 1000 -> 1%\n\n    uint256[] private _nftItems; // Array of item token id\n\n    mapping(string => bool) private _doesTokenURIExistsMapping; /* tokenURI: true */\n    mapping(uint256 => NFTItem) private _mapTokenIdToNFTItem; /* tokenId: NFTItem */\n    mapping(uint256 => uint256) private _mapTokenIdToNFTItemIndex; /* tokenId: index */ // This is all NFT Items index\n    mapping(address => mapping(uint256 => uint256))\n        private _mapOwnerToNFTItemIndexToNFTTokenId; /* address: { index: tokenId } -> This is for all NFT Items by owner */\n    mapping(uint256 => uint256) private _mapTokenIdToItemsCountIndex; // tokenId => nftItemsCount // This is not all nft items index.\n\n    mapping(address => uint256) private _mapOwnerToItemsCreatedCount; /* address: nft item created count */\n    mapping(address => uint256) private _mapOwnerToItemsForSaleCount; /* address: nft item for sale count */\n    mapping(address => uint256) private _mapOwnerToItemsSoldCount; /* address: nft item sold count */\n\n    Counters.Counter private _numberOfItems; // Does not keep track of burned tokens\n    Counters.Counter private _numberOfItemsForSale; // Keep track of active number of items on sale\n\n    constructor() ERC721(\"Xungible NFT\", \"XNFT\") {}\n\n    receive() external payable {}\n\n    function withdrawBalance(uint256 amount) external payable onlyOwner {\n        require(amount <= address(this).balance); //NOT_ENOUGH_BALANCE\n        payable(msg.sender).transfer(address(this).balance);\n    }\n\n    function mintToken(\n        uint256 tokenId,\n        string memory tokenURI,\n        uint256 price,\n        bool isForSale\n    ) public payable {\n        require(!_doesTokenURIExistsMapping[tokenURI]); //URI_ALREADY_EXISTS\n\n        _safeMint(msg.sender, tokenId);\n        _setTokenURI(tokenId, tokenURI);\n        _createNFTItem(tokenId, tokenURI, price, isForSale);\n    }\n\n    function buyNFT(uint256 tokenId) public payable {\n        address ownerAddress = ERC721.ownerOf(tokenId);\n        require(\n            msg.sender != ownerAddress &&\n                msg.sender != _mapTokenIdToNFTItem[tokenId].creator\n        ); //ALREADY_NFT_OWNER Or CANNOT_BUY_YOUR_OWN_CREATION\n        require(msg.value == _mapTokenIdToNFTItem[tokenId].price); //PRICE_MISTMATCH\n        _mapOwnerToItemsForSaleCount[ownerAddress] -= 1;\n        _mapTokenIdToNFTItem[tokenId].isForSale = false;\n        _numberOfItemsForSale.decrement();\n        _mapOwnerToItemsSoldCount[ownerAddress] += 1;\n        _mapTokenIdToNFTItem[tokenId].owner = msg.sender;\n\n        _transfer(ownerAddress, msg.sender, tokenId);\n        payable(ownerAddress).transfer(\n            msg.value - ((msg.value * serviceCharge) / (100000))\n        );\n    }\n\n    function burnToken(uint256 tokenId) public payable {\n        require(msg.sender == ERC721.ownerOf(tokenId)); // NOT_THE_NFT_OWNER\n        _burn(tokenId);\n        _removeNFT(tokenId);\n    }\n\n    function changeNFTSaleStatus(\n        uint256 tokenId,\n        uint256 newPrice,\n        bool changeToIsForSale\n    ) public payable {\n        require(msg.sender == ERC721.ownerOf(tokenId)); // NOT_THE_NFT_OWNER\n        require(\n            changeToIsForSale\n                ? !_mapTokenIdToNFTItem[tokenId].isForSale\n                : _mapTokenIdToNFTItem[tokenId].isForSale\n        ); // ALREADY_ON_SALE OR ALREADY_ON_NOT_FOR_SALE\n        if (changeToIsForSale) {\n            _mapTokenIdToNFTItem[tokenId].price = newPrice;\n            _mapOwnerToItemsForSaleCount[ERC721.ownerOf(tokenId)] += 1;\n            _numberOfItemsForSale.increment();\n        } else {\n            _mapOwnerToItemsForSaleCount[ERC721.ownerOf(tokenId)] -= 1;\n            _numberOfItemsForSale.decrement();\n        }\n        _mapTokenIdToNFTItem[tokenId].isForSale = changeToIsForSale;\n    }\n\n    // Get All NFT Items by particular creator: All NFTs in the contract created by a user\n    function getItemsByCreator(address creator)\n        public\n        view\n        returns (NFTItem[] memory)\n    {\n        NFTItem[] memory allNftItemsByCreator = new NFTItem[](\n            _mapOwnerToItemsCreatedCount[creator]\n        );\n        uint256 currentIndex;\n        for (uint256 i = 0; i < _numberOfItems.current(); i++) {\n            NFTItem memory nftItem = _mapTokenIdToNFTItem[_nftItems[i]];\n            if (nftItem.creator == creator) {\n                allNftItemsByCreator[currentIndex] = nftItem;\n                currentIndex++;\n            }\n        }\n        return allNftItemsByCreator;\n    }\n\n    // Get All NFT Items by particular owner: NFT owned by a user (Sale + Not For Sale)\n    function getItemsByOwner(address owner)\n        public\n        view\n        returns (NFTItem[] memory)\n    {\n        NFTItem[] memory allNftItemsByOwner = new NFTItem[](\n            ERC721.balanceOf(owner)\n        );\n        uint256 currentIndex;\n        for (uint256 i = 0; i < _numberOfItems.current(); i++) {\n            NFTItem memory nftItem = _mapTokenIdToNFTItem[_nftItems[i]];\n            if (nftItem.owner == owner) {\n                allNftItemsByOwner[currentIndex] = nftItem;\n                currentIndex++;\n            }\n        }\n        return allNftItemsByOwner;\n    }\n\n    // Get All NFT Items for Sale: All NFTs in the contract that are for sale\n    function getItemsForSale() public view returns (NFTItem[] memory) {\n        NFTItem[] memory itemsForSale = new NFTItem[](\n            _numberOfItemsForSale.current()\n        );\n        uint256 currentIndex;\n        for (uint256 i = 0; i < _numberOfItems.current(); i++) {\n            NFTItem memory nftItem = _mapTokenIdToNFTItem[_nftItems[i]];\n            if (nftItem.isForSale) {\n                itemsForSale[currentIndex] = nftItem;\n                currentIndex++;\n            }\n        }\n        return itemsForSale;\n    }\n\n    // Get All NFT Items sold by a particular owner: All NFTs in the contract sold by a user\n    function getItemsSoldByOwner(address owner)\n        public\n        view\n        returns (NFTItem[] memory)\n    {\n        NFTItem[] memory itemsSoldByOwner = new NFTItem[](\n            _mapOwnerToItemsSoldCount[owner]\n        );\n        uint256 currentIndex;\n        for (uint256 i = 0; i < _nftItems.length; i++) {\n            NFTItem memory nftItem = _mapTokenIdToNFTItem[_nftItems[i]];\n            if (nftItem.creator == owner && nftItem.owner != owner) {\n                itemsSoldByOwner[currentIndex] = nftItem;\n                currentIndex++;\n            }\n        }\n        return itemsSoldByOwner;\n    }\n\n    // Get All NFT Items for sale by particular user: All NFTs in the contract by a user that are for sale\n    function getItemsForSaleByOwner(address owner)\n        public\n        view\n        returns (NFTItem[] memory)\n    {\n        NFTItem[] memory itemsForSaleByOwner = new NFTItem[](\n            _mapOwnerToItemsForSaleCount[owner]\n        );\n        uint256 currentIndex;\n        for (uint256 i = 0; i < _nftItems.length; i++) {\n            NFTItem memory nftItem = _mapTokenIdToNFTItem[_nftItems[i]];\n            if (nftItem.owner == owner && nftItem.isForSale) {\n                itemsForSaleByOwner[currentIndex] = nftItem;\n                currentIndex++;\n            }\n        }\n        return itemsForSaleByOwner;\n    }\n\n    // Get All NFT Items  not for sale by particular user: All NFTs in the contract by a user that are not for sale\n    function getItemsNotForSaleByOwner(address owner)\n        public\n        view\n        returns (NFTItem[] memory)\n    {\n        NFTItem[] memory itemsForSaleByOwner = new NFTItem[](\n            ERC721.balanceOf(owner) - _mapOwnerToItemsForSaleCount[owner]\n        );\n        uint256 currentIndex;\n        for (uint256 i = 0; i < _nftItems.length; i++) {\n            NFTItem memory nftItem = _mapTokenIdToNFTItem[_nftItems[i]];\n            if (nftItem.owner == owner && !nftItem.isForSale) {\n                itemsForSaleByOwner[currentIndex] = nftItem;\n                currentIndex++;\n            }\n        }\n        return itemsForSaleByOwner;\n    }\n\n    // Get NFT Item by tokenId\n    function getNFTItem(uint256 tokenId) public view returns (NFTItem memory) {\n        return _mapTokenIdToNFTItem[tokenId];\n    }\n\n    function getNFTItemCountUtilityByUser(address userAddress)\n        public\n        view\n        returns (uint256[5] memory)\n    {\n        return [\n            _mapOwnerToItemsCreatedCount[userAddress], // Total NFT Items Created\n            ERC721.balanceOf(userAddress), // Total NFT Items Owned\n            _mapOwnerToItemsForSaleCount[userAddress], // Total NFT Items Owned for sale\n            ERC721.balanceOf(userAddress) -\n                _mapOwnerToItemsForSaleCount[userAddress], // Total NFT Items owned not for sale\n            _mapOwnerToItemsSoldCount[userAddress] // Total NFT Items Sold,\n        ];\n    }\n\n    // Change Service Charge: Only for admin\n    // Should sent percentage value\n    function changeServiceCharge(uint256 newSc) external payable onlyOwner {\n        require(newSc < 100000);\n        serviceCharge = newSc;\n    }\n\n    function _createNFTItem(\n        uint256 tokenId,\n        string memory tokenURI,\n        uint256 price,\n        bool isForSale\n    ) private {\n        require(price > 0); // INVALID_PRICE\n        _mapTokenIdToNFTItem[tokenId] = NFTItem(\n            tokenId,\n            tokenURI,\n            price,\n            msg.sender,\n            msg.sender,\n            isForSale\n        );\n        _doesTokenURIExistsMapping[tokenURI] = true;\n        _numberOfItems.increment();\n        _mapOwnerToItemsCreatedCount[msg.sender] += 1;\n        if (isForSale) {\n            _numberOfItemsForSale.increment();\n            _mapOwnerToItemsForSaleCount[msg.sender] += 1;\n        }\n    }\n\n    function _removeNFT(uint256 tokenId) private {\n        NFTItem memory nftItem = _mapTokenIdToNFTItem[tokenId];\n        delete _doesTokenURIExistsMapping[nftItem.tokenURI];\n        delete _mapTokenIdToNFTItem[tokenId];\n        _numberOfItems.decrement();\n        _mapOwnerToItemsCreatedCount[msg.sender] -= 1;\n        if (nftItem.isForSale) {\n            _numberOfItemsForSale.decrement();\n            _mapOwnerToItemsForSaleCount[msg.sender] += 1;\n        }\n    }\n\n    function _addTokenToAllTokens(uint256 tokenId) private {\n        _mapTokenIdToNFTItemIndex[tokenId] = _nftItems.length;\n        _nftItems.push(tokenId);\n    }\n\n    function _addTokenToOwner(uint256 tokenId, address owner) private {\n        uint256 ownedTokensLength = ERC721.balanceOf(owner);\n        _mapOwnerToNFTItemIndexToNFTTokenId[owner][ownedTokensLength] = tokenId; // This index is not the index for allItems. This index is only for owned items by user.\n        _mapTokenIdToItemsCountIndex[tokenId] = ownedTokensLength;\n    }\n\n    //\n    function _removeTokenFromAllTokens(uint256 tokenId) private {\n        uint256 tokenIndex = _mapTokenIdToNFTItemIndex[tokenId];\n        uint256 lastTokenId = _nftItems[_nftItems.length - 1];\n\n        _nftItems[tokenIndex] = lastTokenId;\n        _mapTokenIdToNFTItemIndex[lastTokenId] = tokenIndex;\n\n        delete _mapTokenIdToNFTItemIndex[tokenId];\n        _nftItems.pop();\n    }\n\n    function _removeTokenFromOwner(uint256 tokenId, address owner) private {\n        uint256 lastTokenIndex = ERC721.balanceOf(owner) - 1;\n        uint256 tokenIndex = _mapTokenIdToItemsCountIndex[tokenId];\n\n        if (lastTokenIndex != tokenIndex) {\n            uint256 lastTokenId = _mapOwnerToNFTItemIndexToNFTTokenId[owner][\n                lastTokenIndex\n            ];\n            _mapOwnerToNFTItemIndexToNFTTokenId[owner][\n                tokenIndex\n            ] = lastTokenId;\n            _mapTokenIdToItemsCountIndex[lastTokenId] = tokenIndex;\n        }\n\n        delete _mapOwnerToNFTItemIndexToNFTTokenId[owner][lastTokenIndex];\n        delete _mapTokenIdToItemsCountIndex[tokenId];\n    }\n\n    function _beforeTokenTransfer(\n        address from,\n        address to,\n        uint256 tokenId\n    ) internal virtual override {\n        super._beforeTokenTransfer(from, to, tokenId);\n\n        if (from == address(0)) {\n            // Mint Only\n            _addTokenToAllTokens(tokenId);\n        } else if (from != to) {\n            // Tranfer (This is also called when token is burned)\n            _removeTokenFromOwner(tokenId, from);\n        }\n\n        if (to == address(0)) {\n            // Burn the token (Delete): This is also called when transfer is done\n            _removeTokenFromAllTokens(tokenId);\n        } else if (to != from) {\n            // Tranfer (This is also called when mint is done)\n            _addTokenToOwner(tokenId, to);\n        }\n    }\n}\n",
  "sourcePath": "/home/niraj/Documents/nft-marketplace/smart_contract/contracts/NFTMarketplace.sol",
  "compiler": {
    "name": "solc",
    "version": "0.8.14+commit.80d49f37.Emscripten.clang"
  },
  "schemaVersion": "3.4.7",
  "updatedAt": "2022-06-28T21:26:51.472Z",
  "networkType": "ethereum",
  "devdoc": {
    "kind": "dev",
    "methods": {
      "approve(address,uint256)": {
        "details": "See {IERC721-approve}."
      },
      "balanceOf(address)": {
        "details": "See {IERC721-balanceOf}."
      },
      "getApproved(uint256)": {
        "details": "See {IERC721-getApproved}."
      },
      "isApprovedForAll(address,address)": {
        "details": "See {IERC721-isApprovedForAll}."
      },
      "name()": {
        "details": "See {IERC721Metadata-name}."
      },
      "owner()": {
        "details": "Returns the address of the current owner."
      },
      "ownerOf(uint256)": {
        "details": "See {IERC721-ownerOf}."
      },
      "renounceOwnership()": {
        "details": "Leaves the contract without owner. It will not be possible to call `onlyOwner` functions anymore. Can only be called by the current owner. NOTE: Renouncing ownership will leave the contract without an owner, thereby removing any functionality that is only available to the owner."
      },
      "safeTransferFrom(address,address,uint256)": {
        "details": "See {IERC721-safeTransferFrom}."
      },
      "safeTransferFrom(address,address,uint256,bytes)": {
        "details": "See {IERC721-safeTransferFrom}."
      },
      "setApprovalForAll(address,bool)": {
        "details": "See {IERC721-setApprovalForAll}."
      },
      "supportsInterface(bytes4)": {
        "details": "See {IERC165-supportsInterface}."
      },
      "symbol()": {
        "details": "See {IERC721Metadata-symbol}."
      },
      "tokenURI(uint256)": {
        "details": "See {IERC721Metadata-tokenURI}."
      },
      "transferFrom(address,address,uint256)": {
        "details": "See {IERC721-transferFrom}."
      },
      "transferOwnership(address)": {
        "details": "Transfers ownership of the contract to a new account (`newOwner`). Can only be called by the current owner."
      }
    },
    "version": 1
  },
  "userdoc": {
    "kind": "user",
    "methods": {},
    "version": 1
  }
}