{
  "contractName": "NFTMarketplace",
  "abi": [
    {
      "inputs": [],
      "stateMutability": "nonpayable",
      "type": "constructor"
    },
    {
      "anonymous": false,
      "inputs": [
        {
          "indexed": true,
          "internalType": "address",
          "name": "owner",
          "type": "address"
        },
        {
          "indexed": true,
          "internalType": "address",
          "name": "approved",
          "type": "address"
        },
        {
          "indexed": true,
          "internalType": "uint256",
          "name": "tokenId",
          "type": "uint256"
        }
      ],
      "name": "Approval",
      "type": "event"
    },
    {
      "anonymous": false,
      "inputs": [
        {
          "indexed": true,
          "internalType": "address",
          "name": "owner",
          "type": "address"
        },
        {
          "indexed": true,
          "internalType": "address",
          "name": "operator",
          "type": "address"
        },
        {
          "indexed": false,
          "internalType": "bool",
          "name": "approved",
          "type": "bool"
        }
      ],
      "name": "ApprovalForAll",
      "type": "event"
    },
    {
      "anonymous": false,
      "inputs": [
        {
          "indexed": false,
          "internalType": "uint256",
          "name": "newPrice",
          "type": "uint256"
        }
      ],
      "name": "ItemListingPriceChanged",
      "type": "event"
    },
    {
      "anonymous": false,
      "inputs": [
        {
          "components": [
            {
              "internalType": "uint256",
              "name": "tokenId",
              "type": "uint256"
            },
            {
              "internalType": "string",
              "name": "tokenURI",
              "type": "string"
            },
            {
              "internalType": "uint256",
              "name": "price",
              "type": "uint256"
            },
            {
              "internalType": "address",
              "name": "creator",
              "type": "address"
            },
            {
              "internalType": "address",
              "name": "owner",
              "type": "address"
            },
            {
              "internalType": "bool",
              "name": "isForSale",
              "type": "bool"
            }
          ],
          "indexed": false,
          "internalType": "struct NFTMarketplace.NFTItem",
          "name": "nftItem",
          "type": "tuple"
        }
      ],
      "name": "NFTItemCreated",
      "type": "event"
    },
    {
      "anonymous": false,
      "inputs": [
        {
          "components": [
            {
              "internalType": "uint256",
              "name": "tokenId",
              "type": "uint256"
            },
            {
              "internalType": "string",
              "name": "tokenURI",
              "type": "string"
            },
            {
              "internalType": "uint256",
              "name": "price",
              "type": "uint256"
            },
            {
              "internalType": "address",
              "name": "creator",
              "type": "address"
            },
            {
              "internalType": "address",
              "name": "owner",
              "type": "address"
            },
            {
              "internalType": "bool",
              "name": "isForSale",
              "type": "bool"
            }
          ],
          "indexed": false,
          "internalType": "struct NFTMarketplace.NFTItem",
          "name": "nftItem",
          "type": "tuple"
        },
        {
          "indexed": false,
          "internalType": "address",
          "name": "purchasedBy",
          "type": "address"
        }
      ],
      "name": "NFTItemPurchased",
      "type": "event"
    },
    {
      "anonymous": false,
      "inputs": [
        {
          "indexed": true,
          "internalType": "address",
          "name": "from",
          "type": "address"
        },
        {
          "indexed": true,
          "internalType": "address",
          "name": "to",
          "type": "address"
        },
        {
          "indexed": true,
          "internalType": "uint256",
          "name": "tokenId",
          "type": "uint256"
        }
      ],
      "name": "Transfer",
      "type": "event"
    },
    {
      "inputs": [],
      "name": "admin",
      "outputs": [
        {
          "internalType": "address",
          "name": "",
          "type": "address"
        }
      ],
      "stateMutability": "view",
      "type": "function",
      "constant": true
    },
    {
      "inputs": [
        {
          "internalType": "address",
          "name": "to",
          "type": "address"
        },
        {
          "internalType": "uint256",
          "name": "tokenId",
          "type": "uint256"
        }
      ],
      "name": "approve",
      "outputs": [],
      "stateMutability": "nonpayable",
      "type": "function"
    },
    {
      "inputs": [
        {
          "internalType": "address",
          "name": "owner",
          "type": "address"
        }
      ],
      "name": "balanceOf",
      "outputs": [
        {
          "internalType": "uint256",
          "name": "",
          "type": "uint256"
        }
      ],
      "stateMutability": "view",
      "type": "function",
      "constant": true
    },
    {
      "inputs": [
        {
          "internalType": "uint256",
          "name": "tokenId",
          "type": "uint256"
        }
      ],
      "name": "getApproved",
      "outputs": [
        {
          "internalType": "address",
          "name": "",
          "type": "address"
        }
      ],
      "stateMutability": "view",
      "type": "function",
      "constant": true
    },
    {
      "inputs": [
        {
          "internalType": "address",
          "name": "owner",
          "type": "address"
        },
        {
          "internalType": "address",
          "name": "operator",
          "type": "address"
        }
      ],
      "name": "isApprovedForAll",
      "outputs": [
        {
          "internalType": "bool",
          "name": "",
          "type": "bool"
        }
      ],
      "stateMutability": "view",
      "type": "function",
      "constant": true
    },
    {
      "inputs": [],
      "name": "itemListingPrice",
      "outputs": [
        {
          "internalType": "uint256",
          "name": "",
          "type": "uint256"
        }
      ],
      "stateMutability": "view",
      "type": "function",
      "constant": true
    },
    {
      "inputs": [],
      "name": "name",
      "outputs": [
        {
          "internalType": "string",
          "name": "",
          "type": "string"
        }
      ],
      "stateMutability": "view",
      "type": "function",
      "constant": true
    },
    {
      "inputs": [
        {
          "internalType": "uint256",
          "name": "tokenId",
          "type": "uint256"
        }
      ],
      "name": "ownerOf",
      "outputs": [
        {
          "internalType": "address",
          "name": "",
          "type": "address"
        }
      ],
      "stateMutability": "view",
      "type": "function",
      "constant": true
    },
    {
      "inputs": [
        {
          "internalType": "address",
          "name": "from",
          "type": "address"
        },
        {
          "internalType": "address",
          "name": "to",
          "type": "address"
        },
        {
          "internalType": "uint256",
          "name": "tokenId",
          "type": "uint256"
        }
      ],
      "name": "safeTransferFrom",
      "outputs": [],
      "stateMutability": "nonpayable",
      "type": "function"
    },
    {
      "inputs": [
        {
          "internalType": "address",
          "name": "from",
          "type": "address"
        },
        {
          "internalType": "address",
          "name": "to",
          "type": "address"
        },
        {
          "internalType": "uint256",
          "name": "tokenId",
          "type": "uint256"
        },
        {
          "internalType": "bytes",
          "name": "_data",
          "type": "bytes"
        }
      ],
      "name": "safeTransferFrom",
      "outputs": [],
      "stateMutability": "nonpayable",
      "type": "function"
    },
    {
      "inputs": [
        {
          "internalType": "address",
          "name": "operator",
          "type": "address"
        },
        {
          "internalType": "bool",
          "name": "approved",
          "type": "bool"
        }
      ],
      "name": "setApprovalForAll",
      "outputs": [],
      "stateMutability": "nonpayable",
      "type": "function"
    },
    {
      "inputs": [
        {
          "internalType": "bytes4",
          "name": "interfaceId",
          "type": "bytes4"
        }
      ],
      "name": "supportsInterface",
      "outputs": [
        {
          "internalType": "bool",
          "name": "",
          "type": "bool"
        }
      ],
      "stateMutability": "view",
      "type": "function",
      "constant": true
    },
    {
      "inputs": [],
      "name": "symbol",
      "outputs": [
        {
          "internalType": "string",
          "name": "",
          "type": "string"
        }
      ],
      "stateMutability": "view",
      "type": "function",
      "constant": true
    },
    {
      "inputs": [
        {
          "internalType": "uint256",
          "name": "tokenId",
          "type": "uint256"
        }
      ],
      "name": "tokenURI",
      "outputs": [
        {
          "internalType": "string",
          "name": "",
          "type": "string"
        }
      ],
      "stateMutability": "view",
      "type": "function",
      "constant": true
    },
    {
      "inputs": [
        {
          "internalType": "address",
          "name": "from",
          "type": "address"
        },
        {
          "internalType": "address",
          "name": "to",
          "type": "address"
        },
        {
          "internalType": "uint256",
          "name": "tokenId",
          "type": "uint256"
        }
      ],
      "name": "transferFrom",
      "outputs": [],
      "stateMutability": "nonpayable",
      "type": "function"
    },
    {
      "stateMutability": "payable",
      "type": "receive",
      "payable": true
    },
    {
      "inputs": [
        {
          "internalType": "uint256",
          "name": "tokenId",
          "type": "uint256"
        },
        {
          "internalType": "string",
          "name": "tokenURI",
          "type": "string"
        },
        {
          "internalType": "uint256",
          "name": "price",
          "type": "uint256"
        }
      ],
      "name": "mintToken",
      "outputs": [],
      "stateMutability": "payable",
      "type": "function",
      "payable": true
    },
    {
      "inputs": [
        {
          "internalType": "uint256",
          "name": "tokenId",
          "type": "uint256"
        }
      ],
      "name": "buyNFT",
      "outputs": [],
      "stateMutability": "payable",
      "type": "function",
      "payable": true
    },
    {
      "inputs": [
        {
          "internalType": "uint256",
          "name": "tokenId",
          "type": "uint256"
        }
      ],
      "name": "getNFTItem",
      "outputs": [
        {
          "components": [
            {
              "internalType": "uint256",
              "name": "tokenId",
              "type": "uint256"
            },
            {
              "internalType": "string",
              "name": "tokenURI",
              "type": "string"
            },
            {
              "internalType": "uint256",
              "name": "price",
              "type": "uint256"
            },
            {
              "internalType": "address",
              "name": "creator",
              "type": "address"
            },
            {
              "internalType": "address",
              "name": "owner",
              "type": "address"
            },
            {
              "internalType": "bool",
              "name": "isForSale",
              "type": "bool"
            }
          ],
          "internalType": "struct NFTMarketplace.NFTItem",
          "name": "",
          "type": "tuple"
        }
      ],
      "stateMutability": "view",
      "type": "function",
      "constant": true
    },
    {
      "inputs": [],
      "name": "getNFTItemsCount",
      "outputs": [
        {
          "internalType": "uint256",
          "name": "",
          "type": "uint256"
        }
      ],
      "stateMutability": "view",
      "type": "function",
      "constant": true
    },
    {
      "inputs": [],
      "name": "getNFTItemsForSaleCount",
      "outputs": [
        {
          "internalType": "uint256",
          "name": "",
          "type": "uint256"
        }
      ],
      "stateMutability": "view",
      "type": "function",
      "constant": true
    },
    {
      "inputs": [
        {
          "internalType": "string",
          "name": "tokenURI",
          "type": "string"
        }
      ],
      "name": "doesTokenURIExists",
      "outputs": [
        {
          "internalType": "bool",
          "name": "",
          "type": "bool"
        }
      ],
      "stateMutability": "view",
      "type": "function",
      "constant": true
    },
    {
      "inputs": [
        {
          "internalType": "uint256",
          "name": "newPrice",
          "type": "uint256"
        }
      ],
      "name": "changeListingPrice",
      "outputs": [],
      "stateMutability": "payable",
      "type": "function",
      "payable": true
    }
  ],
  "bytecode": "0x608060405265e35fa931a0006008553480156200001b57600080fd5b506040518060400160405280600c81526020017f58756e6769626c65204e465400000000000000000000000000000000000000008152506040518060400160405280600481526020017f584e4654000000000000000000000000000000000000000000000000000000008152508160009080519060200190620000a092919062000103565b508060019080519060200190620000b992919062000103565b50505033600760006101000a81548173ffffffffffffffffffffffffffffffffffffffff021916908373ffffffffffffffffffffffffffffffffffffffff16021790555062000217565b8280546200011190620001e2565b90600052602060002090601f01602090048101928262000135576000855562000181565b82601f106200015057805160ff191683800117855562000181565b8280016001018555821562000181579182015b828111156200018057825182559160200191906001019062000163565b5b50905062000190919062000194565b5090565b5b80821115620001af57600081600090555060010162000195565b5090565b7f4e487b7100000000000000000000000000000000000000000000000000000000600052602260045260246000fd5b60006002820490506001821680620001fb57607f821691505b602082108103620002115762000210620001b3565b5b50919050565b613e7b80620002276000396000f3fe6080604052600436106101395760003560e01c80637bea1044116100ab578063ba0f1d9c1161006f578063ba0f1d9c14610427578063baaac26914610443578063c87b56dd1461046e578063e985e9c5146104ab578063f4247d96146104e8578063f851a4401461052557610140565b80637bea10441461035457806395d89b411461037f578063a05edd3f146103aa578063a22cb465146103d5578063b88d4fde146103fe57610140565b806342842e0e116100fd57806342842e0e1461023c57806351ed8288146102655780636352211e1461028157806369f7c1e6146102be5780636a3ceff9146102da57806370a082311461031757610140565b806301ffc9a71461014557806306fdde0314610182578063081812fc146101ad578063095ea7b3146101ea57806323b872dd1461021357610140565b3661014057005b600080fd5b34801561015157600080fd5b5061016c600480360381019061016791906125b0565b610550565b60405161017991906125f8565b60405180910390f35b34801561018e57600080fd5b50610197610632565b6040516101a491906126ac565b60405180910390f35b3480156101b957600080fd5b506101d460048036038101906101cf9190612704565b6106c4565b6040516101e19190612772565b60405180910390f35b3480156101f657600080fd5b50610211600480360381019061020c91906127b9565b610749565b005b34801561021f57600080fd5b5061023a600480360381019061023591906127f9565b610860565b005b34801561024857600080fd5b50610263600480360381019061025e91906127f9565b6108c0565b005b61027f600480360381019061027a9190612704565b6108e0565b005b34801561028d57600080fd5b506102a860048036038101906102a39190612704565b610c19565b6040516102b59190612772565b60405180910390f35b6102d860048036038101906102d39190612981565b610cca565b005b3480156102e657600080fd5b5061030160048036038101906102fc9190612704565b610d7c565b60405161030e9190612af0565b60405180910390f35b34801561032357600080fd5b5061033e60048036038101906103399190612b12565b610f16565b60405161034b9190612b4e565b60405180910390f35b34801561036057600080fd5b50610369610fcd565b6040516103769190612b4e565b60405180910390f35b34801561038b57600080fd5b50610394610fde565b6040516103a191906126ac565b60405180910390f35b3480156103b657600080fd5b506103bf611070565b6040516103cc9190612b4e565b60405180910390f35b3480156103e157600080fd5b506103fc60048036038101906103f79190612b95565b611076565b005b34801561040a57600080fd5b5061042560048036038101906104209190612c76565b61108c565b005b610441600480360381019061043c9190612704565b6110ee565b005b34801561044f57600080fd5b50610458611203565b6040516104659190612b4e565b60405180910390f35b34801561047a57600080fd5b5061049560048036038101906104909190612704565b611214565b6040516104a291906126ac565b60405180910390f35b3480156104b757600080fd5b506104d260048036038101906104cd9190612cf9565b611365565b6040516104df91906125f8565b60405180910390f35b3480156104f457600080fd5b5061050f600480360381019061050a9190612d39565b6113f9565b60405161051c91906125f8565b60405180910390f35b34801561053157600080fd5b5061053a61142e565b6040516105479190612772565b60405180910390f35b60007f80ac58cd000000000000000000000000000000000000000000000000000000007bffffffffffffffffffffffffffffffffffffffffffffffffffffffff1916827bffffffffffffffffffffffffffffffffffffffffffffffffffffffff1916148061061b57507f5b5e139f000000000000000000000000000000000000000000000000000000007bffffffffffffffffffffffffffffffffffffffffffffffffffffffff1916827bffffffffffffffffffffffffffffffffffffffffffffffffffffffff1916145b8061062b575061062a82611454565b5b9050919050565b60606000805461064190612db1565b80601f016020809104026020016040519081016040528092919081815260200182805461066d90612db1565b80156106ba5780601f1061068f576101008083540402835291602001916106ba565b820191906000526020600020905b81548152906001019060200180831161069d57829003601f168201915b5050505050905090565b60006106cf826114be565b61070e576040517f08c379a000000000000000000000000000000000000000000000000000000000815260040161070590612e54565b60405180910390fd5b6004600083815260200190815260200160002060009054906101000a900473ffffffffffffffffffffffffffffffffffffffff169050919050565b600061075482610c19565b90508073ffffffffffffffffffffffffffffffffffffffff168373ffffffffffffffffffffffffffffffffffffffff16036107c4576040517f08c379a00000000000000000000000000000000000000000000000000000000081526004016107bb90612ee6565b60405180910390fd5b8073ffffffffffffffffffffffffffffffffffffffff166107e361152a565b73ffffffffffffffffffffffffffffffffffffffff16148061081257506108118161080c61152a565b611365565b5b610851576040517f08c379a000000000000000000000000000000000000000000000000000000000815260040161084890612f78565b60405180910390fd5b61085b8383611532565b505050565b61087161086b61152a565b826115eb565b6108b0576040517f08c379a00000000000000000000000000000000000000000000000000000000081526004016108a79061300a565b60405180910390fd5b6108bb8383836116c9565b505050565b6108db8383836040518060200160405280600081525061108c565b505050565b60006108eb82610c19565b90508073ffffffffffffffffffffffffffffffffffffffff163373ffffffffffffffffffffffffffffffffffffffff160361095b576040517f08c379a00000000000000000000000000000000000000000000000000000000081526004016109529061309c565b60405180910390fd5b6000600a60008481526020019081526020016000206040518060c00160405290816000820154815260200160018201805461099590612db1565b80601f01602080910402602001604051908101604052809291908181526020018280546109c190612db1565b8015610a0e5780601f106109e357610100808354040283529160200191610a0e565b820191906000526020600020905b8154815290600101906020018083116109f157829003601f168201915b50505050508152602001600282015481526020016003820160009054906101000a900473ffffffffffffffffffffffffffffffffffffffff1673ffffffffffffffffffffffffffffffffffffffff1673ffffffffffffffffffffffffffffffffffffffff1681526020016004820160009054906101000a900473ffffffffffffffffffffffffffffffffffffffff1673ffffffffffffffffffffffffffffffffffffffff1673ffffffffffffffffffffffffffffffffffffffff1681526020016004820160149054906101000a900460ff1615151515815250509050600081604001519050348103610b35576040517f08c379a0000000000000000000000000000000000000000000000000000000008152600401610b2c9061312e565b60405180910390fd5b60008260a001901515908115158152505033826080019073ffffffffffffffffffffffffffffffffffffffff16908173ffffffffffffffffffffffffffffffffffffffff1681525050610b88600c61192f565b610b938333866116c9565b8273ffffffffffffffffffffffffffffffffffffffff166108fc829081150290604051600060405180830381858888f19350505050158015610bd9573d6000803e3d6000fd5b507f4c98ced6f5bda2eb868d6c635c688eaac10b026a3482f98d290474e006ce99b78233604051610c0b92919061314e565b60405180910390a150505050565b6000806002600084815260200190815260200160002060009054906101000a900473ffffffffffffffffffffffffffffffffffffffff169050600073ffffffffffffffffffffffffffffffffffffffff168173ffffffffffffffffffffffffffffffffffffffff1603610cc1576040517f08c379a0000000000000000000000000000000000000000000000000000000008152600401610cb8906131f0565b60405180910390fd5b80915050919050565b610cd3826113f9565b15610d13576040517f08c379a0000000000000000000000000000000000000000000000000000000008152600401610d0a90613282565b60405180910390fd5b3460085414610d57576040517f08c379a0000000000000000000000000000000000000000000000000000000008152600401610d4e90613314565b60405180910390fd5b610d61338461198b565b610d6b83836119a9565b610d76838383611a1d565b50505050565b610d8461243d565b600a60008381526020019081526020016000206040518060c001604052908160008201548152602001600182018054610dbc90612db1565b80601f0160208091040260200160405190810160405280929190818152602001828054610de890612db1565b8015610e355780601f10610e0a57610100808354040283529160200191610e35565b820191906000526020600020905b815481529060010190602001808311610e1857829003601f168201915b50505050508152602001600282015481526020016003820160009054906101000a900473ffffffffffffffffffffffffffffffffffffffff1673ffffffffffffffffffffffffffffffffffffffff1673ffffffffffffffffffffffffffffffffffffffff1681526020016004820160009054906101000a900473ffffffffffffffffffffffffffffffffffffffff1673ffffffffffffffffffffffffffffffffffffffff1673ffffffffffffffffffffffffffffffffffffffff1681526020016004820160149054906101000a900460ff1615151515815250509050919050565b60008073ffffffffffffffffffffffffffffffffffffffff168273ffffffffffffffffffffffffffffffffffffffff1603610f86576040517f08c379a0000000000000000000000000000000000000000000000000000000008152600401610f7d906133a6565b60405180910390fd5b600360008373ffffffffffffffffffffffffffffffffffffffff1673ffffffffffffffffffffffffffffffffffffffff168152602001908152602001600020549050919050565b6000610fd9600c611c4b565b905090565b606060018054610fed90612db1565b80601f016020809104026020016040519081016040528092919081815260200182805461101990612db1565b80156110665780601f1061103b57610100808354040283529160200191611066565b820191906000526020600020905b81548152906001019060200180831161104957829003601f168201915b5050505050905090565b60085481565b61108861108161152a565b8383611c59565b5050565b61109d61109761152a565b836115eb565b6110dc576040517f08c379a00000000000000000000000000000000000000000000000000000000081526004016110d39061300a565b60405180910390fd5b6110e884848484611dc5565b50505050565b600760009054906101000a900473ffffffffffffffffffffffffffffffffffffffff1673ffffffffffffffffffffffffffffffffffffffff163373ffffffffffffffffffffffffffffffffffffffff161461117e576040517f08c379a000000000000000000000000000000000000000000000000000000000815260040161117590613438565b60405180910390fd5b80600854036111c2576040517f08c379a00000000000000000000000000000000000000000000000000000000081526004016111b9906134ca565b60405180910390fd5b806008819055507fea2a36373ff8e1e2b95cea97720985ba2917e3becfd8d543f733dcc9e7bb7d71816040516111f89190612b4e565b60405180910390a150565b600061120f600b611c4b565b905090565b606061121f826114be565b61125e576040517f08c379a00000000000000000000000000000000000000000000000000000000081526004016112559061355c565b60405180910390fd5b600060066000848152602001908152602001600020805461127e90612db1565b80601f01602080910402602001604051908101604052809291908181526020018280546112aa90612db1565b80156112f75780601f106112cc576101008083540402835291602001916112f7565b820191906000526020600020905b8154815290600101906020018083116112da57829003601f168201915b505050505090506000611308611e21565b9050600081510361131d578192505050611360565b60008251111561135257808260405160200161133a9291906135b8565b60405160208183030381529060405292505050611360565b61135b84611e38565b925050505b919050565b6000600560008473ffffffffffffffffffffffffffffffffffffffff1673ffffffffffffffffffffffffffffffffffffffff16815260200190815260200160002060008373ffffffffffffffffffffffffffffffffffffffff1673ffffffffffffffffffffffffffffffffffffffff16815260200190815260200160002060009054906101000a900460ff16905092915050565b600060098260405161140b91906135dc565b908152602001604051809103902060009054906101000a900460ff169050919050565b600760009054906101000a900473ffffffffffffffffffffffffffffffffffffffff1681565b60007f01ffc9a7000000000000000000000000000000000000000000000000000000007bffffffffffffffffffffffffffffffffffffffffffffffffffffffff1916827bffffffffffffffffffffffffffffffffffffffffffffffffffffffff1916149050919050565b60008073ffffffffffffffffffffffffffffffffffffffff166002600084815260200190815260200160002060009054906101000a900473ffffffffffffffffffffffffffffffffffffffff1673ffffffffffffffffffffffffffffffffffffffff1614159050919050565b600033905090565b816004600083815260200190815260200160002060006101000a81548173ffffffffffffffffffffffffffffffffffffffff021916908373ffffffffffffffffffffffffffffffffffffffff160217905550808273ffffffffffffffffffffffffffffffffffffffff166115a583610c19565b73ffffffffffffffffffffffffffffffffffffffff167f8c5be1e5ebec7d5bd14f71427d1e84f3dd0314c0f7b2291e5b200ac8c7c3b92560405160405180910390a45050565b60006115f6826114be565b611635576040517f08c379a000000000000000000000000000000000000000000000000000000000815260040161162c90613665565b60405180910390fd5b600061164083610c19565b90508073ffffffffffffffffffffffffffffffffffffffff168473ffffffffffffffffffffffffffffffffffffffff16148061168257506116818185611365565b5b806116c057508373ffffffffffffffffffffffffffffffffffffffff166116a8846106c4565b73ffffffffffffffffffffffffffffffffffffffff16145b91505092915050565b8273ffffffffffffffffffffffffffffffffffffffff166116e982610c19565b73ffffffffffffffffffffffffffffffffffffffff161461173f576040517f08c379a0000000000000000000000000000000000000000000000000000000008152600401611736906136f7565b60405180910390fd5b600073ffffffffffffffffffffffffffffffffffffffff168273ffffffffffffffffffffffffffffffffffffffff16036117ae576040517f08c379a00000000000000000000000000000000000000000000000000000000081526004016117a590613789565b60405180910390fd5b6117b9838383611edf565b6117c4600082611532565b6001600360008573ffffffffffffffffffffffffffffffffffffffff1673ffffffffffffffffffffffffffffffffffffffff168152602001908152602001600020600082825461181491906137d8565b925050819055506001600360008473ffffffffffffffffffffffffffffffffffffffff1673ffffffffffffffffffffffffffffffffffffffff168152602001908152602001600020600082825461186b919061380c565b92505081905550816002600083815260200190815260200160002060006101000a81548173ffffffffffffffffffffffffffffffffffffffff021916908373ffffffffffffffffffffffffffffffffffffffff160217905550808273ffffffffffffffffffffffffffffffffffffffff168473ffffffffffffffffffffffffffffffffffffffff167fddf252ad1be2c89b69c2b068fc378daa952ba7f163c4a11628f55a4df523b3ef60405160405180910390a461192a838383611ee4565b505050565b6000816000015490506000811161197b576040517f08c379a0000000000000000000000000000000000000000000000000000000008152600401611972906138ae565b60405180910390fd5b6001810382600001819055505050565b6119a5828260405180602001604052806000815250611ee9565b5050565b6119b2826114be565b6119f1576040517f08c379a00000000000000000000000000000000000000000000000000000000081526004016119e890613940565b60405180910390fd5b80600660008481526020019081526020016000209080519060200190611a189291906124a1565b505050565b611a2561243d565b60008211611a68576040517f08c379a0000000000000000000000000000000000000000000000000000000008152600401611a5f906139d2565b60405180910390fd5b60006040518060c001604052808681526020018581526020018481526020013373ffffffffffffffffffffffffffffffffffffffff1681526020013373ffffffffffffffffffffffffffffffffffffffff16815260200160011515815250905080600a6000878152602001908152602001600020600082015181600001556020820151816001019080519060200190611b029291906124a1565b506040820151816002015560608201518160030160006101000a81548173ffffffffffffffffffffffffffffffffffffffff021916908373ffffffffffffffffffffffffffffffffffffffff16021790555060808201518160040160006101000a81548173ffffffffffffffffffffffffffffffffffffffff021916908373ffffffffffffffffffffffffffffffffffffffff16021790555060a08201518160040160146101000a81548160ff021916908315150217905550905050611bc8600b611f44565b611bd2600c611f44565b6001600985604051611be491906135dc565b908152602001604051809103902060006101000a81548160ff0219169083151502179055507f0bd49abfdbd368627e4177e90825a4ce7dcd0049e5812363f71599a5340ff57a81604051611c389190612af0565b60405180910390a1809150509392505050565b600081600001549050919050565b8173ffffffffffffffffffffffffffffffffffffffff168373ffffffffffffffffffffffffffffffffffffffff1603611cc7576040517f08c379a0000000000000000000000000000000000000000000000000000000008152600401611cbe90613a3e565b60405180910390fd5b80600560008573ffffffffffffffffffffffffffffffffffffffff1673ffffffffffffffffffffffffffffffffffffffff16815260200190815260200160002060008473ffffffffffffffffffffffffffffffffffffffff1673ffffffffffffffffffffffffffffffffffffffff16815260200190815260200160002060006101000a81548160ff0219169083151502179055508173ffffffffffffffffffffffffffffffffffffffff168373ffffffffffffffffffffffffffffffffffffffff167f17307eab39ab6107e8899845ad3d59bd9653f200f220920489ca2b5937696c3183604051611db891906125f8565b60405180910390a3505050565b611dd08484846116c9565b611ddc84848484611f5a565b611e1b576040517f08c379a0000000000000000000000000000000000000000000000000000000008152600401611e1290613ad0565b60405180910390fd5b50505050565b606060405180602001604052806000815250905090565b6060611e43826114be565b611e82576040517f08c379a0000000000000000000000000000000000000000000000000000000008152600401611e7990613b62565b60405180910390fd5b6000611e8c611e21565b90506000815111611eac5760405180602001604052806000815250611ed7565b80611eb6846120e1565b604051602001611ec79291906135b8565b6040516020818303038152906040525b915050919050565b505050565b505050565b611ef38383612241565b611f006000848484611f5a565b611f3f576040517f08c379a0000000000000000000000000000000000000000000000000000000008152600401611f3690613ad0565b60405180910390fd5b505050565b6001816000016000828254019250508190555050565b6000611f7b8473ffffffffffffffffffffffffffffffffffffffff1661241a565b156120d4578373ffffffffffffffffffffffffffffffffffffffff1663150b7a02611fa461152a565b8786866040518563ffffffff1660e01b8152600401611fc69493929190613bd7565b6020604051808303816000875af192505050801561200257506040513d601f19601f82011682018060405250810190611fff9190613c38565b60015b612084573d8060008114612032576040519150601f19603f3d011682016040523d82523d6000602084013e612037565b606091505b50600081510361207c576040517f08c379a000000000000000000000000000000000000000000000000000000000815260040161207390613ad0565b60405180910390fd5b805181602001fd5b63150b7a0260e01b7bffffffffffffffffffffffffffffffffffffffffffffffffffffffff1916817bffffffffffffffffffffffffffffffffffffffffffffffffffffffff1916149150506120d9565b600190505b949350505050565b606060008203612128576040518060400160405280600181526020017f3000000000000000000000000000000000000000000000000000000000000000815250905061223c565b600082905060005b6000821461215a57808061214390613c65565b915050600a826121539190613cdc565b9150612130565b60008167ffffffffffffffff81111561217657612175612856565b5b6040519080825280601f01601f1916602001820160405280156121a85781602001600182028036833780820191505090505b5090505b60008514612235576001826121c191906137d8565b9150600a856121d09190613d0d565b60306121dc919061380c565b60f81b8183815181106121f2576121f1613d3e565b5b60200101907effffffffffffffffffffffffffffffffffffffffffffffffffffffffffffff1916908160001a905350600a8561222e9190613cdc565b94506121ac565b8093505050505b919050565b600073ffffffffffffffffffffffffffffffffffffffff168273ffffffffffffffffffffffffffffffffffffffff16036122b0576040517f08c379a00000000000000000000000000000000000000000000000000000000081526004016122a790613db9565b60405180910390fd5b6122b9816114be565b156122f9576040517f08c379a00000000000000000000000000000000000000000000000000000000081526004016122f090613e25565b60405180910390fd5b61230560008383611edf565b6001600360008473ffffffffffffffffffffffffffffffffffffffff1673ffffffffffffffffffffffffffffffffffffffff1681526020019081526020016000206000828254612355919061380c565b92505081905550816002600083815260200190815260200160002060006101000a81548173ffffffffffffffffffffffffffffffffffffffff021916908373ffffffffffffffffffffffffffffffffffffffff160217905550808273ffffffffffffffffffffffffffffffffffffffff16600073ffffffffffffffffffffffffffffffffffffffff167fddf252ad1be2c89b69c2b068fc378daa952ba7f163c4a11628f55a4df523b3ef60405160405180910390a461241660008383611ee4565b5050565b6000808273ffffffffffffffffffffffffffffffffffffffff163b119050919050565b6040518060c00160405280600081526020016060815260200160008152602001600073ffffffffffffffffffffffffffffffffffffffff168152602001600073ffffffffffffffffffffffffffffffffffffffff1681526020016000151581525090565b8280546124ad90612db1565b90600052602060002090601f0160209004810192826124cf5760008555612516565b82601f106124e857805160ff1916838001178555612516565b82800160010185558215612516579182015b828111156125155782518255916020019190600101906124fa565b5b5090506125239190612527565b5090565b5b80821115612540576000816000905550600101612528565b5090565b6000604051905090565b600080fd5b600080fd5b60007fffffffff0000000000000000000000000000000000000000000000000000000082169050919050565b61258d81612558565b811461259857600080fd5b50565b6000813590506125aa81612584565b92915050565b6000602082840312156125c6576125c561254e565b5b60006125d48482850161259b565b91505092915050565b60008115159050919050565b6125f2816125dd565b82525050565b600060208201905061260d60008301846125e9565b92915050565b600081519050919050565b600082825260208201905092915050565b60005b8381101561264d578082015181840152602081019050612632565b8381111561265c576000848401525b50505050565b6000601f19601f8301169050919050565b600061267e82612613565b612688818561261e565b935061269881856020860161262f565b6126a181612662565b840191505092915050565b600060208201905081810360008301526126c68184612673565b905092915050565b6000819050919050565b6126e1816126ce565b81146126ec57600080fd5b50565b6000813590506126fe816126d8565b92915050565b60006020828403121561271a5761271961254e565b5b6000612728848285016126ef565b91505092915050565b600073ffffffffffffffffffffffffffffffffffffffff82169050919050565b600061275c82612731565b9050919050565b61276c81612751565b82525050565b60006020820190506127876000830184612763565b92915050565b61279681612751565b81146127a157600080fd5b50565b6000813590506127b38161278d565b92915050565b600080604083850312156127d0576127cf61254e565b5b60006127de858286016127a4565b92505060206127ef858286016126ef565b9150509250929050565b6000806000606084860312156128125761281161254e565b5b6000612820868287016127a4565b9350506020612831868287016127a4565b9250506040612842868287016126ef565b9150509250925092565b600080fd5b600080fd5b7f4e487b7100000000000000000000000000000000000000000000000000000000600052604160045260246000fd5b61288e82612662565b810181811067ffffffffffffffff821117156128ad576128ac612856565b5b80604052505050565b60006128c0612544565b90506128cc8282612885565b919050565b600067ffffffffffffffff8211156128ec576128eb612856565b5b6128f582612662565b9050602081019050919050565b82818337600083830152505050565b600061292461291f846128d1565b6128b6565b9050828152602081018484840111156129405761293f612851565b5b61294b848285612902565b509392505050565b600082601f8301126129685761296761284c565b5b8135612978848260208601612911565b91505092915050565b60008060006060848603121561299a5761299961254e565b5b60006129a8868287016126ef565b935050602084013567ffffffffffffffff8111156129c9576129c8612553565b5b6129d586828701612953565b92505060406129e6868287016126ef565b9150509250925092565b6129f9816126ce565b82525050565b600082825260208201905092915050565b6000612a1b82612613565b612a2581856129ff565b9350612a3581856020860161262f565b612a3e81612662565b840191505092915050565b612a5281612751565b82525050565b612a61816125dd565b82525050565b600060c083016000830151612a7f60008601826129f0565b5060208301518482036020860152612a978282612a10565b9150506040830151612aac60408601826129f0565b506060830151612abf6060860182612a49565b506080830151612ad26080860182612a49565b5060a0830151612ae560a0860182612a58565b508091505092915050565b60006020820190508181036000830152612b0a8184612a67565b905092915050565b600060208284031215612b2857612b2761254e565b5b6000612b36848285016127a4565b91505092915050565b612b48816126ce565b82525050565b6000602082019050612b636000830184612b3f565b92915050565b612b72816125dd565b8114612b7d57600080fd5b50565b600081359050612b8f81612b69565b92915050565b60008060408385031215612bac57612bab61254e565b5b6000612bba858286016127a4565b9250506020612bcb85828601612b80565b9150509250929050565b600067ffffffffffffffff821115612bf057612bef612856565b5b612bf982612662565b9050602081019050919050565b6000612c19612c1484612bd5565b6128b6565b905082815260208101848484011115612c3557612c34612851565b5b612c40848285612902565b509392505050565b600082601f830112612c5d57612c5c61284c565b5b8135612c6d848260208601612c06565b91505092915050565b60008060008060808587031215612c9057612c8f61254e565b5b6000612c9e878288016127a4565b9450506020612caf878288016127a4565b9350506040612cc0878288016126ef565b925050606085013567ffffffffffffffff811115612ce157612ce0612553565b5b612ced87828801612c48565b91505092959194509250565b60008060408385031215612d1057612d0f61254e565b5b6000612d1e858286016127a4565b9250506020612d2f858286016127a4565b9150509250929050565b600060208284031215612d4f57612d4e61254e565b5b600082013567ffffffffffffffff811115612d6d57612d6c612553565b5b612d7984828501612953565b91505092915050565b7f4e487b7100000000000000000000000000000000000000000000000000000000600052602260045260246000fd5b60006002820490506001821680612dc957607f821691505b602082108103612ddc57612ddb612d82565b5b50919050565b7f4552433732313a20617070726f76656420717565727920666f72206e6f6e657860008201527f697374656e7420746f6b656e0000000000000000000000000000000000000000602082015250565b6000612e3e602c8361261e565b9150612e4982612de2565b604082019050919050565b60006020820190508181036000830152612e6d81612e31565b9050919050565b7f4552433732313a20617070726f76616c20746f2063757272656e74206f776e6560008201527f7200000000000000000000000000000000000000000000000000000000000000602082015250565b6000612ed060218361261e565b9150612edb82612e74565b604082019050919050565b60006020820190508181036000830152612eff81612ec3565b9050919050565b7f4552433732313a20617070726f76652063616c6c6572206973206e6f74206f7760008201527f6e6572206e6f7220617070726f76656420666f7220616c6c0000000000000000602082015250565b6000612f6260388361261e565b9150612f6d82612f06565b604082019050919050565b60006020820190508181036000830152612f9181612f55565b9050919050565b7f4552433732313a207472616e736665722063616c6c6572206973206e6f74206f60008201527f776e6572206e6f7220617070726f766564000000000000000000000000000000602082015250565b6000612ff460318361261e565b9150612fff82612f98565b604082019050919050565b6000602082019050818103600083015261302381612fe7565b9050919050565b7f594f555f4152455f4e46545f4f574e45527c596f7520616c7265616479206f7760008201527f6e652074686973204e4654204974656d2e000000000000000000000000000000602082015250565b600061308660318361261e565b91506130918261302a565b604082019050919050565b600060208201905081810360008301526130b581613079565b9050919050565b7f50524943455f4d4953544d415443487c596f757220707269636520646f65732060008201527f6e6f74206d6174636820746865206c69737465642070726963652e0000000000602082015250565b6000613118603b8361261e565b9150613123826130bc565b604082019050919050565b600060208201905081810360008301526131478161310b565b9050919050565b600060408201905081810360008301526131688185612a67565b90506131776020830184612763565b9392505050565b7f4552433732313a206f776e657220717565727920666f72206e6f6e657869737460008201527f656e7420746f6b656e0000000000000000000000000000000000000000000000602082015250565b60006131da60298361261e565b91506131e58261317e565b604082019050919050565b60006020820190508181036000830152613209816131cd565b9050919050565b7f544f4b454e5f5552495f414c52454144595f4558495354537c546f6b656e205560008201527f524920616c7265616479206578697374732e0000000000000000000000000000602082015250565b600061326c60328361261e565b915061327782613210565b604082019050919050565b6000602082019050818103600083015261329b8161325f565b9050919050565b7f4c495354494e475f50524943455f4d49534d415443487c4c697374696e67207060008201527f72696365206d69736d617463682e000000000000000000000000000000000000602082015250565b60006132fe602e8361261e565b9150613309826132a2565b604082019050919050565b6000602082019050818103600083015261332d816132f1565b9050919050565b7f4552433732313a2062616c616e636520717565727920666f7220746865207a6560008201527f726f206164647265737300000000000000000000000000000000000000000000602082015250565b6000613390602a8361261e565b915061339b82613334565b604082019050919050565b600060208201905081810360008301526133bf81613383565b9050919050565b7f5045524d495353494f4e5f44454e4945447c4f6e6c7920616c6c6f776564207460008201527f6f2061646d696e2e000000000000000000000000000000000000000000000000602082015250565b600061342260288361261e565b915061342d826133c6565b604082019050919050565b6000602082019050818103600083015261345181613415565b9050919050565b7f4e65772050726963652069732073616d6520617320746865206f6c642070726960008201527f63652e0000000000000000000000000000000000000000000000000000000000602082015250565b60006134b460238361261e565b91506134bf82613458565b604082019050919050565b600060208201905081810360008301526134e3816134a7565b9050919050565b7f45524337323155524953746f726167653a2055524920717565727920666f722060008201527f6e6f6e6578697374656e7420746f6b656e000000000000000000000000000000602082015250565b600061354660318361261e565b9150613551826134ea565b604082019050919050565b6000602082019050818103600083015261357581613539565b9050919050565b600081905092915050565b600061359282612613565b61359c818561357c565b93506135ac81856020860161262f565b80840191505092915050565b60006135c48285613587565b91506135d08284613587565b91508190509392505050565b60006135e88284613587565b915081905092915050565b7f4552433732313a206f70657261746f7220717565727920666f72206e6f6e657860008201527f697374656e7420746f6b656e0000000000000000000000000000000000000000602082015250565b600061364f602c8361261e565b915061365a826135f3565b604082019050919050565b6000602082019050818103600083015261367e81613642565b9050919050565b7f4552433732313a207472616e736665722066726f6d20696e636f72726563742060008201527f6f776e6572000000000000000000000000000000000000000000000000000000602082015250565b60006136e160258361261e565b91506136ec82613685565b604082019050919050565b60006020820190508181036000830152613710816136d4565b9050919050565b7f4552433732313a207472616e7366657220746f20746865207a65726f2061646460008201527f7265737300000000000000000000000000000000000000000000000000000000602082015250565b600061377360248361261e565b915061377e82613717565b604082019050919050565b600060208201905081810360008301526137a281613766565b9050919050565b7f4e487b7100000000000000000000000000000000000000000000000000000000600052601160045260246000fd5b60006137e3826126ce565b91506137ee836126ce565b925082821015613801576138006137a9565b5b828203905092915050565b6000613817826126ce565b9150613822836126ce565b9250827fffffffffffffffffffffffffffffffffffffffffffffffffffffffffffffffff03821115613857576138566137a9565b5b828201905092915050565b7f436f756e7465723a2064656372656d656e74206f766572666c6f770000000000600082015250565b6000613898601b8361261e565b91506138a382613862565b602082019050919050565b600060208201905081810360008301526138c78161388b565b9050919050565b7f45524337323155524953746f726167653a2055524920736574206f66206e6f6e60008201527f6578697374656e7420746f6b656e000000000000000000000000000000000000602082015250565b600061392a602e8361261e565b9150613935826138ce565b604082019050919050565b600060208201905081810360008301526139598161391d565b9050919050565b7f494e56414c49445f50524943457c5072696365206d757374206265206772656160008201527f746572207468616e20302e000000000000000000000000000000000000000000602082015250565b60006139bc602b8361261e565b91506139c782613960565b604082019050919050565b600060208201905081810360008301526139eb816139af565b9050919050565b7f4552433732313a20617070726f766520746f2063616c6c657200000000000000600082015250565b6000613a2860198361261e565b9150613a33826139f2565b602082019050919050565b60006020820190508181036000830152613a5781613a1b565b9050919050565b7f4552433732313a207472616e7366657220746f206e6f6e20455243373231526560008201527f63656976657220696d706c656d656e7465720000000000000000000000000000602082015250565b6000613aba60328361261e565b9150613ac582613a5e565b604082019050919050565b60006020820190508181036000830152613ae981613aad565b9050919050565b7f4552433732314d657461646174613a2055524920717565727920666f72206e6f60008201527f6e6578697374656e7420746f6b656e0000000000000000000000000000000000602082015250565b6000613b4c602f8361261e565b9150613b5782613af0565b604082019050919050565b60006020820190508181036000830152613b7b81613b3f565b9050919050565b600081519050919050565b600082825260208201905092915050565b6000613ba982613b82565b613bb38185613b8d565b9350613bc381856020860161262f565b613bcc81612662565b840191505092915050565b6000608082019050613bec6000830187612763565b613bf96020830186612763565b613c066040830185612b3f565b8181036060830152613c188184613b9e565b905095945050505050565b600081519050613c3281612584565b92915050565b600060208284031215613c4e57613c4d61254e565b5b6000613c5c84828501613c23565b91505092915050565b6000613c70826126ce565b91507fffffffffffffffffffffffffffffffffffffffffffffffffffffffffffffffff8203613ca257613ca16137a9565b5b600182019050919050565b7f4e487b7100000000000000000000000000000000000000000000000000000000600052601260045260246000fd5b6000613ce7826126ce565b9150613cf2836126ce565b925082613d0257613d01613cad565b5b828204905092915050565b6000613d18826126ce565b9150613d23836126ce565b925082613d3357613d32613cad565b5b828206905092915050565b7f4e487b7100000000000000000000000000000000000000000000000000000000600052603260045260246000fd5b7f4552433732313a206d696e7420746f20746865207a65726f2061646472657373600082015250565b6000613da360208361261e565b9150613dae82613d6d565b602082019050919050565b60006020820190508181036000830152613dd281613d96565b9050919050565b7f4552433732313a20746f6b656e20616c7265616479206d696e74656400000000600082015250565b6000613e0f601c8361261e565b9150613e1a82613dd9565b602082019050919050565b60006020820190508181036000830152613e3e81613e02565b905091905056fea2646970667358221220efb081e87bc7291246dd971b861305ab92c8473a7ac6b91940ac642e8bb4184d64736f6c634300080e0033",
  "immutableReferences": {},
  "source": "// SPDX-License-Identifier: MIT\n\npragma solidity ^0.8.14;\n\nimport \"../node_modules/@openzeppelin/contracts/token/ERC721/extensions/ERC721URIStorage.sol\";\nimport \"../node_modules/@openzeppelin/contracts/utils/Counters.sol\";\nimport \"./Admin.sol\";\n\ncontract NFTMarketplace is ERC721URIStorage, Admin {\n    using Counters for Counters.Counter;\n\n    struct NFTItem {\n        uint256 tokenId;\n        string tokenURI;\n        uint256 price;\n        address creator;\n        address owner;\n        bool isForSale;\n    }\n    uint256 public itemListingPrice = 250000000000000; // 0.00025 Ether by default\n\n    mapping(string => bool) private _doesTokenURIExistsMapping;\n    mapping(uint256 => NFTItem) private _mapTokenIdToNFTItem;\n\n    Counters.Counter private _numberOfItems;\n    Counters.Counter private _numberOfItemsForSale;\n\n    constructor() ERC721(\"Xungible NFT\", \"XNFT\") {}\n\n    receive() external payable {}\n\n    event NFTItemCreated(NFTItem nftItem);\n    event ItemListingPriceChanged(uint256 newPrice);\n    event NFTItemPurchased(NFTItem nftItem, address purchasedBy);\n\n    function mintToken(\n        uint256 tokenId,\n        string memory tokenURI,\n        uint256 price\n    ) public payable {\n        require(\n            !doesTokenURIExists(tokenURI),\n            \"TOKEN_URI_ALREADY_EXISTS|Token URI already exists.\"\n        );\n        require(\n            itemListingPrice == msg.value,\n            \"LISTING_PRICE_MISMATCH|Listing price mismatch.\"\n        );\n        _safeMint(msg.sender, tokenId);\n        _setTokenURI(tokenId, tokenURI);\n        _createNFTItem(tokenId, tokenURI, price);\n    }\n\n    function buyNFT(uint256 tokenId) external payable {\n        address itemOwner = ERC721.ownerOf(tokenId);\n        require(\n            msg.sender != itemOwner,\n            \"YOU_ARE_NFT_OWNER|You already owne this NFT Item.\"\n        );\n        NFTItem memory nftItem = _mapTokenIdToNFTItem[tokenId];\n        uint256 itemPrice = nftItem.price;\n        require(\n            itemPrice != msg.value,\n            \"PRICE_MISTMATCH|Your price does not match the listed price.\"\n        );\n\n        nftItem.isForSale = false;\n        nftItem.owner = msg.sender;\n        _numberOfItemsForSale.decrement();\n\n        _transfer(itemOwner, msg.sender, tokenId);\n        payable(itemOwner).transfer(itemPrice);\n\n        emit NFTItemPurchased(nftItem, msg.sender);\n    }\n\n    function getNFTItem(uint256 tokenId) public view returns (NFTItem memory) {\n        return _mapTokenIdToNFTItem[tokenId];\n    }\n\n    function getNFTItemsCount() public view returns (uint256) {\n        return _numberOfItems.current();\n    }\n\n    function getNFTItemsForSaleCount() public view returns (uint256) {\n        return _numberOfItemsForSale.current();\n    }\n\n    function doesTokenURIExists(string memory tokenURI)\n        public\n        view\n        returns (bool)\n    {\n        return _doesTokenURIExistsMapping[tokenURI];\n    }\n\n    function changeListingPrice(uint256 newPrice) external payable onlyAdmin {\n        require(\n            itemListingPrice != newPrice,\n            \"New Price is same as the old price.\"\n        );\n        itemListingPrice = newPrice;\n        emit ItemListingPriceChanged(newPrice);\n    }\n\n    function _createNFTItem(\n        uint256 tokenId,\n        string memory tokenURI,\n        uint256 price\n    ) private returns (NFTItem memory) {\n        require(price > 0, \"INVALID_PRICE|Price must be greater than 0.\");\n        NFTItem memory newNFTItem = NFTItem(\n            tokenId,\n            tokenURI,\n            price,\n            msg.sender,\n            msg.sender,\n            true\n        );\n        _mapTokenIdToNFTItem[tokenId] = newNFTItem;\n        _numberOfItems.increment();\n        _numberOfItemsForSale.increment();\n        _doesTokenURIExistsMapping[tokenURI] = true;\n        emit NFTItemCreated(newNFTItem);\n        return newNFTItem;\n    }\n}\n",
  "sourcePath": "/home/niraj/Documents/nft-marketplace/smart_contract/contracts/NFTMarketplace.sol",
  "compiler": {
    "name": "solc",
    "version": "0.8.14+commit.80d49f37.Emscripten.clang"
  },
  "schemaVersion": "3.4.7",
  "updatedAt": "2022-06-25T20:59:14.748Z",
  "networkType": "ethereum",
  "devdoc": {
    "kind": "dev",
    "methods": {
      "approve(address,uint256)": {
        "details": "See {IERC721-approve}."
      },
      "balanceOf(address)": {
        "details": "See {IERC721-balanceOf}."
      },
      "getApproved(uint256)": {
        "details": "See {IERC721-getApproved}."
      },
      "isApprovedForAll(address,address)": {
        "details": "See {IERC721-isApprovedForAll}."
      },
      "name()": {
        "details": "See {IERC721Metadata-name}."
      },
      "ownerOf(uint256)": {
        "details": "See {IERC721-ownerOf}."
      },
      "safeTransferFrom(address,address,uint256)": {
        "details": "See {IERC721-safeTransferFrom}."
      },
      "safeTransferFrom(address,address,uint256,bytes)": {
        "details": "See {IERC721-safeTransferFrom}."
      },
      "setApprovalForAll(address,bool)": {
        "details": "See {IERC721-setApprovalForAll}."
      },
      "supportsInterface(bytes4)": {
        "details": "See {IERC165-supportsInterface}."
      },
      "symbol()": {
        "details": "See {IERC721Metadata-symbol}."
      },
      "tokenURI(uint256)": {
        "details": "See {IERC721Metadata-tokenURI}."
      },
      "transferFrom(address,address,uint256)": {
        "details": "See {IERC721-transferFrom}."
      }
    },
    "version": 1
  },
  "userdoc": {
    "kind": "user",
    "methods": {},
    "version": 1
  }
}